:040000000C94E40078
:040040000C94070114
:040064000C94E70110
:04007C000C94580187
:040090000C94E801E3
:0400A4000C94850132
:0400B8000C94BA01E9
:1401C800CFEFD1E2CDBFDEBFCE51D0400AEA08830024E0E0F7
:1401DC00F2E012E0E233F10711F00192FBCF0083E8ECF1E0B8
:1401F000A0E0B2E011E000E00BBFE83CF10721F0C8953196FD
:140204000D92F9CF0E943604FFCF0A921A922A923A924A9229
:140218005A920A931A932A933A938A939A93AA93BA930FB679
:14022C000A9281E090E0A0E0B0E040901202509013022090B8
:14024000100230901102280E391E4A1E5B1E309211022092D0
:140254001002509213024092120281E090E0A0E0B0E04090F6
:140268000E0250900F0220900C0230900D02280E391E4A1EFF
:14027C005B1E30920D0220920C0250920F0240920E020990F6
:140290000FBEB991A991999189913991299119910991599014
:1402A4004990399029901990099018952A923A924A925A92AC
:1402B8008A939A93AA93BA932FB62A9281E090E0A0E0B0E0DC
:1402CC0040900A0250900B022090080230900902280E391E43
:1402E0004A1E5B1E309209022092080250920B0240920A02D3
:1402F40029902FBEB991A99199918991599049903990299044
:1403080018952A923A924A925A920A931A932A933A938A93F3
:14031C009A93AA93BA932FB62A9281E090E0A0E0B0E04090C4
:140330000602509007022090040230900502280E391E4A1E56
:140344005B1E3092050220920402509207024092060229902D
:140358002FBEB991A99199918991399129911991099159902B
:14036C0049903990299018952A923A924A925A928A939A93DB
:14038000AA93BA932FB62A9281E090E0A0E0B0E04090020289
:14039400509003022090000230900102280E391E4A1E5B1E8D
:1403A8003092010220920002509203024092020229902FBE65
:1403BC00B991A99199918991599049903990299018951895C7
:1403D00018951801232C33242092C5000093C40088E980935B
:1403E400C10086E08093C20008952090C00025FEFCCF00937B
:1403F800C60008951801232C33242092CD000093CC0088E980
:14040C008093C90086E08093CA0008952090C80025FEFCCFBA
:140420000093CE0008958FEF90E09093890080938800809184
:140434000A01806380930A0180910B01806180930B0100305B
:14044800010731F480910B01807E80930B0109C00130E0E07F
:14045C001E0729F480910B01806280930B01089580910B0172
:14047000807F80930B0108958FE790E090938B0080938A008C
:1404840080910B01806180930B0108958FEF90E090938B000E
:1404980080938A0080910A018C6080930A0180910B0184608C
:1404AC0080930B010030010731F480910B01887F80930B017D
:1404C00009C00130E0E01E0729F480910B01886080930B0108
:1404D400089580910B018C7F80930B0108958FE790E090938A
:1404E80089008093880080910B01846080930B0108958FEFA1
:1404FC0090E0909399008093980080910A01806C80930A01EF
:1405100080910B01806480930B010030010731F480910B013D
:14052400807880930B0109C00130E0E01E0729F480910B0193
:14053800806880930B01089580910B01807C80930B01089536
:14054C008FE790E0909399008093980080910B01806480933A
:140560000B0108958FEF90E090939B0080939A008AB1836067
:140574008AB9589A0030010721F48BB18E7F8BB905C001306E
:14058800E0E01E0709F4599A08955A9808958FE790E0909355
:14059C009B0080939A00589A08958FEF90E09093A9008093A7
:1405B000A8008AB1806C8AB95E9A0030010721F48BB18078AC
:1405C4008BB905C00130E0E01E0709F45F9A08955E980895DE
:1405D8008FE790E09093A9008093A8005E9A08958FEF90E01F
:1405EC009093AB008093AA0084B1886184B92B9A0030010718
:1406000011F42C9805C00130E0E01E0709F42C9A08952B981F
:1406140008958FE790E09093AB008093AA002B9A089584B12D
:14062800806684B98FEF90E0909389008093880090938B00B8
:14063C0080938A0083E88093800089E08093810080916F0092
:14065000806280936F0008958DB188618DB98FEF90E0909317
:1406640099008093980090939B0080939A0083E880939000C5
:1406780089E0809391008091710080628093710008958091CB
:14068C0001018861809301018FEF90E09093A9008093A800E5
:1406A0009093AB008093AA0083E88093A00089E08093A10080
:1406B40080917200806280937200089522242092200189E029
:1406C80080932101809173008062809373000895F89422248E
:1406DC00209274008FEF84B925B88DB92EB880930101209259
:1406F000020120920B018FE380930A01209208012092070130
:1407040007E410E064DE07E410E076DE8ADFA2DFBADFD4DF5F
:1407180080E080932E0280932F02809330028093310280E0FB
:14072C00809328028093290280932A0280932B0280E080934C
:14074000220280932302809324028093250280E080931C0245
:1407540080931D0280931E0280931F0280E08093160280935A
:140768001702809318028093190280E080931002809311025E
:14077C00809312028093130280E080930C0280930D02809364
:140790000E0280930F0280E0809308028093090280930A0267
:1407A40080930B0280E0809304028093050280930602809360
:1407B800070280E0809300028093010280930202809303026A
:1407CC00789408951A930A93289780E08C838D838E838F83C5
:1407E0002884398444245524288239824A825B8210C081E07C
:1407F40090E0A0E0B0E0288039804A805B80281A390A4A0A92
:140808005B0A288239824A825B8280E090E0A0E0B0E02880E1
:14081C0039804A805B8082159305A405B5051CF381E090E0F8
:14083000A0E0B0E02C803D804E805F80280E391E4A1E5B1E20
:140844002C823D824E825F8284E690E0A0E0B0E02C803D802F
:140858004E805F80281639064A065B060CF4BCCF2A960895C9
:14086C0035DF19C001E010E0D8DD01E010E03FDE01E010E046
:1408800071DE01E010E08FDE87E085B908EE13E09FDF01E4E6
:12089400ACDD01E4BFDDE8DD51DE79DE99DEE6CF089534
:00000001FF
