:100000000C9472000C948F000C948F000C948F0051
:100010000C948F000C948F000C948F000C948F0024
:100020000C948F000C948F000C948F000C948F0014
:100030000C948F000C948F000C948F000C948F0004
:100040000C9491000C948F000C948F000C948F00F2
:100050000C948F000C948F000C948F000C948F00E4
:100060000C948F000C9431020C948F000C948F0030
:100070000C948F000C948F000C948F000C94EB0068
:100080000C948F000C948F000C948F000C948F00B4
:100090000C94F9010C948F000C948F000C948F0039
:1000A0000C948F000C9445010C948F000C948F00DD
:1000B0000C948F000C948F000C949F010C948F0073
:1000C0000C948F000C948F000C948F000C948F0074
:1000D0000C948F000C948F000C948F000C948F0064
:1000E0000C948F0011241FBECFEFD1E2DEBFCDBF35
:1000F00013E0A8E0B3E001C01D92AD3CB107E1F709
:1001000013E0A0E0B2E0ECE6FFE202C005900D9241
:10011000A830B107D9F70E94CE0F0C94B4170C94F5
:1001200000001F920F920FB60F9211248F939F938E
:10013000AF93BF93DF93CF93CDB7DEB78091C80362
:100140009091C903A091CA03B091CB030196A11D60
:10015000B11D8093C8039093C903A093CA03B093C1
:10016000CB03809196038133A1F480916E0390912B
:100170006F03A0917003B09171030196A11DB11D91
:1001800080936E0390936F03A0937003B0937103F9
:1001900017C080919603803399F480916E039091FB
:1001A0006F03A0917003B09171030197A109B10988
:1001B00080936E0390936F03A0937003B0937103C9
:1001C000CF91DF91BF91AF919F918F910F900FBE13
:1001D0000F901F9018951F920F920FB60F92112437
:1001E0008F939F93AF93BF93DF93CF93CDB7DEB73A
:1001F0008091BA039091BB03A091BC03B091BD0361
:100200000196A11DB11D8093BA039093BB03A093E7
:10021000BC03B093BD03809188038133A1F4809126
:100220000F0390911003A0911103B0911203019656
:10023000A11DB11D80930F0390931003A093110390
:10024000B093120317C080918803803399F4809192
:100250000F0390911003A0911103B0911203019725
:10026000A109B10980930F0390931003A093110388
:10027000B0931203CF91DF91BF91AF919F918F9176
:100280000F900FBE0F901F9018951F920F920FB6F0
:100290000F9211248F939F93AF93BF93DF93CF93CC
:1002A000CDB7DEB78091250390912603A091270357
:1002B000B09128030196A11DB11D80932503909351
:1002C0002603A0932703B09328038091380381333A
:1002D000A1F480918E0390918F03A0919003B0912F
:1002E00091030196A11DB11D80938E0390938F03FE
:1002F000A0939003B093910317C08091380380338B
:1003000099F480918E0390918F03A0919003B09106
:1003100091030197A109B10980938E0390938F03F4
:10032000A0939003B0939103CF91DF91BF91AF91D0
:100330009F918F910F900FBE0F901F9018951F9255
:100340000F920FB60F9211248F939F93AF93BF9389
:10035000DF93CF93CDB7DEB78091BE039091BF03FB
:10036000A091C003B091C1030196A11DB11D80935E
:10037000BE039093BF03A093C003B093C1038091C9
:1003800039038133A1F480918A0390918B03A0916A
:100390008C03B0918D030196A11DB11D80938A033A
:1003A00090938B03A0938C03B0938D0317C080911F
:1003B0003903803399F480918A0390918B03A09143
:1003C0008C03B0918D030197A109B10980938A0331
:1003D00090938B03A0938C03B0938D03CF91DF9107
:1003E000BF91AF919F918F910F900FBE0F901F9073
:1003F00018951F920F920FB60F9211248F939F930F
:10040000EF93FF93DF93CF930F92CDB7DEB7EEEC70
:10041000F0E08081898380910903882F90E0FC01BE
:10042000ED5EFC4F8981808380910903833031F434
:1004300081E0809344031092090307C0809109036F
:100440008F5F80930903109244030F90CF91DF9147
:10045000FF91EF919F918F910F900FBE0F901F9082
:1004600018951F920F920FB60F9211248F939F939E
:10047000EF93FF93DF93CF930F92CDB7DEB7E6EC08
:10048000F0E08081898380910803882F90E0FC014F
:10049000E956FC4F8981808389818D3031F481E078
:1004A000809359031092080307C0809108038F5F5F
:1004B00080930803109259030F90CF91DF91FF9121
:1004C000EF919F918F910F900FBE0F901F901895F5
:1004D000DF93CF9300D0CDB7DEB79A838983E5EC65
:1004E000F0E089819A81892F99278083E4ECF0E0FC
:1004F00089818083E1ECF0E088E98083E2ECF0E040
:1005000086E080830F900F90CF91DF910895DF9365
:10051000CF930F92CDB7DEB78983E0ECF0E0808116
:10052000882F90E0807290700097B9F3E6ECF0E0CD
:10053000898180830F90CF91DF910895DF93CF93CE
:1005400000D0CDB7DEB79A838983EDECF0E08981E6
:100550009A81892F99278083ECECF0E08981808350
:10056000E9ECF0E088E98083EAECF0E086E0808363
:100570000F900F90CF91DF910895DF93CF930F925B
:10058000CDB7DEB78983E8ECF0E08081882F90E07A
:10059000807290700097B9F3EEECF0E0898180836F
:1005A0000F90CF91DF910895DF93CF930F92CDB746
:1005B000DEB789831092C8031092C9031092CA0350
:1005C0001092CB03E9E8F0E083E08083E8E8F0E014
:1005D0008FEF8083AAE0B1E0EAE0F1E080818C60F7
:1005E0008C938981803341F4ABE0B1E0EBE0F1E042
:1005F0008081877F8C930AC08981813339F4ABE095
:10060000B1E0EBE0F1E0808188608C93ABE0B1E099
:10061000EBE0F1E0808184608C93A0E8B0E0E0E85A
:10062000F0E0808180688C93A2E0B1E0E2E0F1E04C
:100630008081807C8C930F90CF91DF910895DF9320
:10064000CF93CDB7DEB7ABE0B1E0EBE0F1E0808176
:100650008B7F8C93A0E8B0E0E0E8F0E080818F77BA
:100660008C93A2E0B1E0E2E0F1E0808180628C93C3
:10067000CF91DF910895DF93CF93CDB7DEB7EBE84D
:10068000F0E01082EAE8F0E08FEF8083ABE0B1E0C9
:10069000EBE0F1E0808184608C93A0E8B0E0E0E8DA
:1006A000F0E0808180688C93CF91DF910895DF9393
:1006B000CF9300D0CDB7DEB79A838983E9E8F0E025
:1006C00089819A81892F990F990B8083E8E8F0E05E
:1006D000898180830F900F90CF91DF910895DF93F0
:1006E000CF930F92CDB7DEB789831092BA031092E1
:1006F000BB031092BC031092BD03EBE8F0E083E073
:100700008083EAE8F0E08FEF8083AAE0B1E0EAE0DE
:10071000F1E0808180638C938981803341F4ABE088
:10072000B1E0EBE0F1E080818F7D8C930AC089819C
:10073000813339F4ABE0B1E0EBE0F1E0808180623D
:100740008C93ABE0B1E0EBE0F1E0808180618C93D1
:10075000A0E8B0E0E0E8F0E0808180628C93A2E065
:10076000B1E0E2E0F1E0808180788C930F90CF914E
:10077000DF910895DF93CF93CDB7DEB7ABE0B1E063
:10078000EBE0F1E080818F7E8C93A0E8B0E0E0E8C0
:10079000F0E080818F7D8C93A2E0B1E0E2E0F1E0B7
:1007A000808180648C93CF91DF910895DF93CF9304
:1007B000CDB7DEB7E9E8F0E01082E8E8F0E08FEFCF
:1007C0008083ABE0B1E0EBE0F1E0808180618C936D
:1007D000A0E8B0E0E0E8F0E0808180628C93CF9107
:1007E000DF910895DF93CF9300D0CDB7DEB79A8322
:1007F0008983EBE8F0E089819A81892F990F990B21
:100800008083EAE8F0E0898180830F900F90CF9198
:10081000DF910895DF93CF93CDB7DEB72F970FB653
:10082000F894DEBF0FBECDBF8F87109225031092C4
:1008300026031092270310922803AAE0B1E0EAE011
:10084000F1E08081806C8C93E9E9F0E01082E8E9C6
:10085000F0E080E48083ABE0B1E0EBE0F1E08081A8
:1008600080648C938F85803341F4ABE0B1E0EBE0A2
:10087000F1E080818F778C9384C08F85813309F07C
:1008800080C0ABE0B1E0EBE0F1E080818F778C934A
:1008900080E090E0AAE7B4E48B879C87AD87BE87B1
:1008A0006B857C858D859E852DEC3CEC4CE255E47A
:1008B0000E94E812DC01CB018F839887A987BA8751
:1008C0006F81788589859A8520E030E040E85FE394
:1008D0000E94421488232CF481E090E09E838D8353
:1008E0003FC06F81788589859A8520E03FEF4FE78B
:1008F00057E40E94E21318164CF56B857C858D85B4
:100900009E8520E030E040E251E40E94E812DC01E4
:10091000CB01BC01CD010E941211DC01CB019E83F1
:100920008D830FC084E191E09C838B838B819C81BC
:100930000197F1F79C838B838D819E8101979E8324
:100940008D838D819E81009769F714C06F817885B2
:1009500089859A850E941211DC01CB019E838D83CB
:100960008D819E819A83898389819A810197F1F78C
:100970009A838983ABE0B1E0EBE0F1E080818068AD
:100980008C93A0E9B0E0E0E9F0E0808180688C938E
:10099000A5E2B0E0E5E2F0E080818E7F8C932F96B7
:1009A0000FB6F894DEBF0FBECDBFCF91DF91089593
:1009B000DF93CF93CDB7DEB7ABE0B1E0EBE0F1E092
:1009C00080818F7B8C93A0E9B0E0E0E9F0E080814A
:1009D0008F778C93A5E2B0E0E5E2F0E08081816062
:1009E0008C93CF91DF910895DF93CF93CDB7DEB78E
:1009F000E9E9F0E01082E8E9F0E08FEF8083ABE016
:100A0000B1E0EBE0F1E0808180648C93A0E9B0E09C
:100A1000E0E9F0E0808180688C93CF91DF910895C8
:100A2000DF93CF9300D0CDB7DEB79A838983E9E90E
:100A3000F0E089819A81892F990F990B8083E8E9E9
:100A4000F0E0898180830F900F90CF91DF9108951E
:100A5000DF93CF930F92CDB7DEB789831092BE0399
:100A60001092BF031092C0031092C103EBE9F0E0B3
:100A700083E08083EAE9F0E08FEF8083AAE2B0E0D0
:100A8000EAE2F0E0808183608C938981803341F4D5
:100A9000ABE2B0E0EBE2F0E080818D7F8C930AC0A6
:100AA0008981813339F4ABE2B0E0EBE2F0E08081A0
:100AB00082608C93ABE2B0E0EBE2F0E08081816099
:100AC0008C93A0E9B0E0E0E9F0E0808180628C9353
:100AD000A5E2B0E0E5E2F0E080818C7F8C930F909E
:100AE000CF91DF910895DF93CF93CDB7DEB7ABE21F
:100AF000B0E0EBE2F0E080818E7F8C93A0E9B0E083
:100B0000E0E9F0E080818F7D8C93A5E2B0E0E5E242
:100B1000F0E0808182608C93CF91DF910895DF9324
:100B2000CF93CDB7DEB7EAE9F0E08FEF90E09183A5
:100B30008083ABE2B0E0EBE2F0E0808181608C93F7
:100B4000A0E9B0E0E0E9F0E0808180628C93CF9191
:100B5000DF910895DF93CF9300D0CDB7DEB79A83AE
:100B60008983EBE9F0E089819A81892F990F990BAC
:100B70008083EAE9F0E0898180830F900F90CF9124
:100B8000DF910895DF93CF930F92CDB7DEB78983BE
:100B900010927C0310927D0310927E0310927F03CB
:100BA000E9EAF0E083E08083E8EAF0E08FEF808319
:100BB000AAE2B0E0EAE2F0E08081806C8C93898167
:100BC000803341F4ABE2B0E0EBE2F0E080818F777C
:100BD0008C930AC08981813339F4ABE2B0E0EBE257
:100BE000F0E0808180688C93ABE2B0E0EBE2F0E073
:100BF000808180648C93A0EAB0E0E0EAF0E080813C
:100C000080688C93A5E2B0E0E5E2F0E08081887F27
:100C10008C930F90CF91DF910895DF93CF93CDB751
:100C2000DEB7ABE2B0E0EBE2F0E080818F7B8C934B
:100C3000A0EAB0E0E0EAF0E080818F778C93A5E253
:100C4000B0E0E5E2F0E0808184608C93CF91DF91A9
:100C50000895DF93CF93CDB7DEB7E9EAF0E01082D5
:100C6000E8EAF0E08FEF8083ABE2B0E0EBE2F0E0A7
:100C7000808180648C93A0EAB0E0E0EAF0E08081BB
:100C800080688C93CF91DF910895DF93CF9300D04C
:100C9000CDB7DEB79A838983E9EAF0E089819A814A
:100CA000892F990F990B8083E8EAF0E0898180838E
:100CB0000F900F90CF91DF910895DF93CF930F9214
:100CC000CDB7DEB789831092470310924803109284
:100CD000490310924A03EBEAF0E083E08083EAEAFA
:100CE000F0E08FEF8083A4E2B0E0E4E2F0E0808106
:100CF00088618C938981803341F4A5E2B0E0E5E21C
:100D0000F0E080818F7E8C930AC08981813339F431
:100D1000A5E2B0E0E5E2F0E0808180618C93A5E29D
:100D2000B0E0E5E2F0E0808188608C93A0EAB0E07A
:100D3000E0EAF0E0808180628C93AEE2B0E0EEE227
:100D4000F0E0808180788C930F90CF91DF910895AF
:100D5000DF93CF93CDB7DEB7A5E2B0E0E5E2F0E0F8
:100D60008081877F8C93A0EAB0E0E0EAF0E08081A8
:100D70008F7D8C93AEE2B0E0EEE2F0E080818064A3
:100D80008C93CF91DF910895DF93CF93CDB7DEB7EA
:100D9000EBEAF0E01082EAEAF0E08FEF8083A5E270
:100DA000B0E0E5E2F0E0808188608C93A0EAB0E0FA
:100DB000E0EAF0E0808180628C93CF91DF9108952A
:100DC000DF93CF9300D0CDB7DEB79A838983EBEA68
:100DD000F0E089819A81892F990F990B8083EAEA43
:100DE000F0E0898180830F900F90CF91DF9108957B
:100DF000DF93CF93CDB7DEB7A4E2B0E0E4E2F0E05A
:100E0000808180668C93E9E8F0E01082E8E8F0E009
:100E10008FEF8083EBE8F0E01082EAE8F0E08FEFFC
:100E20008083E0E8F0E083E08083E1E8F0E089E0BF
:100E30008083AFE6B0E0EFE6F0E0808180628C93E3
:100E4000CF91DF910895DF93CF93CDB7DEB7ADE2B9
:100E5000B0E0EDE2F0E0808188618C93E9E9F0E0B8
:100E60001082E8E9F0E080E48083EBE9F0E01082B2
:100E7000EAE9F0E080E48083ADE2B0E0EDE2F0E0AA
:100E800080818F778C93E0E9F0E083E08083E1E973
:100E9000F0E089E08083A1E7B0E0E1E7F0E0808165
:100EA00080628C93CF91DF910895DF93CF93CDB77C
:100EB000DEB7A1E0B1E0E1E0F1E0808188618C93F0
:100EC000E9EAF0E081E08083E8EAF0E08FEF8083F8
:100ED000EBEAF0E081E08083EAEAF0E08FEF8083E4
:100EE000AAE0B1E0EAE0F1E080818E7F8C93E0EA55
:100EF000F0E083E08083E1EAF0E089E08083A2E72C
:100F0000B0E0E2E7F0E0808180628C93CF91DF91E6
:100F10000895DF93CF93CDB7DEB7E0E2F1E0108222
:100F2000E1E2F1E089E08083A3E7B0E0E3E7F0E00D
:100F3000808180628C93CF91DF910895DF93CF936E
:100F4000CDB7DEB7F894E4E7F0E01082E4E2F0E039
:100F50008FEF8083E5E2F0E087E08083EDE2F0E070
:100F60008FEF8083EEE2F0E080E48083E1E0F1E067
:100F70008FEF8083E2E0F1E080E68083EBE0F1E058
:100F80001082EAE0F1E08CEF8083E8E0F1E08FEF9F
:100F90008083E7E0F1E0108287E490E00E9468023D
:100FA00087E490E00E949E020E94F8060E942307B8
:100FB0000E9455070E94890710925903109244031A
:100FC00010926E0310926F031092700310927103CF
:100FD00010920F031092100310921103109212033B
:100FE00010928E0310928F0310929003109291032F
:100FF00010928A0310928B0310928C0310928D032F
:101000001092340310923503109236031092370376
:101010001092C8031092C9031092CA031092CB0316
:101020001092BA031092BB031092BC031092BD033E
:101030001092250310922603109227031092280382
:101040001092BE031092BF031092C0031092C1030E
:1010500010927C0310927D0310927E0310927F0306
:101060007894CF91DF910895DF93CF93CDB7DEB71A
:101070002A970FB6F894DEBF0FBECDBF9A87898737
:101080001D821E821F82188629C089859A85CC01FF
:10109000A0E0B0E089839A83AB83BC830BC08981D5
:1010A0009A81AB81BC810197A109B10989839A8397
:1010B000AB83BC8389819A81AB81BC8118161906E8
:1010C0001A061B0664F38D819E81AF81B885019657
:1010D000A11DB11D8D839E83AF83B8878D819E81B5
:1010E000AF81B88584369105A105B10574F22A96C1
:1010F0000FB6F894DEBF0FBECDBFCF91DF9108953C
:10110000DF93CF93CDB7DEB72A970FB6F894DEBF43
:101110000FBECDBF9A8789871D821E821F821886C7
:1011200029C089859A85CC01A0E0B0E089839A83A3
:10113000AB83BC830BC089819A81AB81BC81019751
:10114000A109B10989839A83AB83BC8389819A8180
:10115000AB81BC81181619061A061B0664F38D8133
:101160009E81AF81B8850196A11DB11D8D839E839F
:10117000AF83B8878D819E81AF81B885823091051C
:10118000A105B10574F22A960FB6F894DEBF0FBE22
:10119000CDBFCF91DF910895DF93CF93CDB7DEB769
:1011A00028970FB6F894DEBF0FBECDBF80915903CC
:1011B000813009F0C4C18CEA93E027E933E0B9013A
:1011C0004DE050E00E9440178091AD03282F30E0A1
:1011D00038872F838F8198858033910509F420C14A
:1011E0002F8138852133310509F0A7C18091AC03E7
:1011F000282F30E03E832D838D819E81833391059E
:1012000009F482C02D813E812433310564F48D813F
:101210009E8181339105D1F02D813E8122333105AC
:1012200009F44FC08AC18D819E818533910509F4EF
:10123000B1C02D813E81253331050CF488C08D81EC
:101240009E818633910509F4C8C077C181E08093FF
:1012500055038091AE030E94D4028091AE03809327
:10126000960389E293E02FEA33E0B90149E050E0C8
:101270000E94401789E293E00E941917DC01CB011C
:101280008093A8039093A903A093AA03B093AB0300
:101290001A8219820DC089819A81FC01E75DFC4F99
:1012A00080810E94870289819A8101969A8389832D
:1012B00089819A81FC01E75DFC4F8081882359F781
:1012C0003CC181E08093C2038091AE030E946F0312
:1012D0008091AE03809388038AE393E02FEA33E0A2
:1012E000B90149E050E00E9440178AE393E00E9470
:1012F0001917DC01CB0180930A0390930B03A09391
:101300000C03B0930D0319C181E08093B903809160
:10131000AE030E940A048091AE038093380384E6F2
:1013200093E02FEA33E0B90149E050E00E94401712
:1013300084E693E00E941917DC01CB0180938203BD
:1013400090938303A0938403B0938503F6C081E058
:10135000809389038091AE030E9428058091AE039B
:101360008093390382E793E02FEA33E0B90149E043
:1013700050E00E94401782E793E00E941917DC01B9
:10138000CB018093A4039093A503A093A603B093ED
:10139000A703D3C081E0809333038091AE030E9402
:1013A000C2058091AE03809358038BE493E02FEA4B
:1013B00033E0B90149E050E00E9440178BE493E02C
:1013C0000E941917DC01CB01809321039093220323
:1013D000A0932303B0932403B0C081E08093C5039E
:1013E0008091AE030E945D068091AE038093CC0392
:1013F0008AE593E02FEA33E0B90149E050E00E942A
:1014000040178AE593E00E941917DC01CB01809315
:10141000920390939303A0939403B09395038DC08C
:101420008091AC03282F30E03C832B838B819C81FF
:101430008333910509F442C02B813C81243331056B
:101440005CF48B819C8181339105C1F02B813C81BF
:101450002233310519F171C08B819C81853391054F
:1014600009F44CC02B813C8125333105BCF18B81C3
:101470009C818633910509F451C05FC00E941F030F
:101480001092550382E3809396031092C803109242
:10149000C9031092CA031092CB034FC00E94BA0333
:1014A0001092C20382E3809388031092BA031092D1
:1014B000BB031092BC031092BD033FC00E94D8042E
:1014C0001092B90382E3809338031092250310929F
:1014D000260310922703109228032FC00E94730541
:1014E0001092890382E3809339031092BE03109215
:1014F000BF031092C0031092C1031FC00E940D06CB
:101500001092330382E38093580310927C0310926D
:101510007D0310927E0310927F030FC00E94A806E5
:101520001092C50382E38093CC031092470310927C
:1015300048031092490310924A03109259032896C7
:101540000FB6F894DEBF0FBECDBFCF91DF910895E7
:10155000DF93CF93CDB7DEB780914403813091F410
:10156000809113030E94C50A809114030E94C50A4A
:10157000809115030E94C50A809116030E94C50A36
:1015800010924403CF91DF910895DF93CF9300D061
:101590000F92CDB7DEB78B838B81882F90E0807C54
:1015A0009070009709F03FC08B81882F90E09C01DC
:1015B0002F7130708FE190E0AC01249FC001259F16
:1015C000900D349F900D11249093C4038093C30316
:1015D0008B81882F90E09C012F7130708FE190E01B
:1015E000AC01249FC001259F900D349F900D1124C4
:1015F0000E9457038B81882F90E08F719070009725
:1016000019F40E941F03A7C08B8180728A838A818C
:10161000882319F480E3898302C081E38983898167
:101620000E94D40298C08B81882F90E0807C9070BB
:101630008034910559F58B81882F90E09C012F71A2
:1016400030708FE190E0AC01249FC001259F900D88
:10165000349F900D11240E94F2038B81882F90E01B
:101660008F719070009719F40E94BA0374C08B8137
:1016700080728A838A81882319F480E3898302C077
:1016800081E3898389810E946F0365C08B81882FE4
:1016900090E0807C90708038910559F58B81882F7F
:1016A00090E09C012F7130708FE190E0AC01249F9D
:1016B000C001259F900D349F900D11240E941005AC
:1016C0008B81882F90E08F719070009719F40E94A1
:1016D000D80441C08B8180728A838A81882319F45F
:1016E00080E3898302C081E3898389810E940A049F
:1016F00032C08B81882F90E0807C9070803C910577
:1017000051F58B81882F90E09C012F7130708FE113
:1017100090E0AC01249FC001259F900D349F900D57
:1017200011240E94AA058B81882F90E08F71907000
:10173000009719F40E9473050EC08B8180728A8312
:101740008A81882319F480E3898302C081E3898335
:1017500089810E9428050F900F900F90CF91DF9103
:101760000895AF92BF92CF92DF92EF92FF920F93C4
:101770001F93DF93CF93CDB7DEB7809155038130B0
:1017800009F063C08091C8039091C903A091CA0376
:10179000B091CB03BC01CD010E9472145B016C01BE
:1017A0008091A8039091A903A091AA03B091AB03E3
:1017B000BC01CD010E9472147B018C018091A803B1
:1017C0009091A903A091AA03B091AB03BC01CD01F4
:1017D0000E947214DC01CB01BC01CD012DEC3CEC6C
:1017E0004CE45DE30E94E812DC01CB01BC01CD01B9
:1017F00020E030E040E251E40E9495179B01AC01EB
:10180000C801B7010E948A12DC01CB019C01AD0125
:10181000C601B5010E9412148823BCF02091C803B0
:101820003091C9034091CA035091CB038091A80322
:101830009091A903A091AA03B091AB03281739078F
:101840004A075B0714F40E943B038091C203813076
:1018500009F063C08091BA039091BB03A091BC03CF
:10186000B091BD03BC01CD010E9472145B016C01FB
:1018700080910A0390910B03A0910C03B0910D038A
:10188000BC01CD010E9472147B018C0180910A037E
:1018900090910B03A0910C03B0910D03BC01CD01FD
:1018A0000E947214DC01CB01BC01CD012DEC3CEC9B
:1018B0004CE45DE30E94E812DC01CB01BC01CD01E8
:1018C00020E030E040E251E40E9495179B01AC011A
:1018D000C801B7010E948A12DC01CB019C01AD0155
:1018E000C601B5010E9412148823BCF02091BA03EE
:1018F0003091BB034091BC035091BD0380910A031A
:1019000090910B03A0910C03B0910D032817390798
:101910004A075B0714F40E94D6038091B903813013
:1019200009F063C08091250390912603A0912703BD
:10193000B0912803BC01CD010E9472145B016C01BF
:101940008091820390918303A0918403B0918503D9
:10195000BC01CD010E9472147B018C018091820335
:1019600090918303A0918403B0918503BC01CD01C4
:101970000E947214DC01CB01BC01CD012DEC3CECCA
:101980004CE45DE30E94E812DC01CB01BC01CD0117
:1019900020E030E040E251E40E9495179B01AC0149
:1019A000C801B7010E948A12DC01CB019C01AD0184
:1019B000C601B5010E9412148823BCF020912503B2
:1019C0003091260340912703509128038091820390
:1019D00090918303A0918403B09185032817390760
:1019E0004A075B0714F40E94F40480918903813054
:1019F00009F063C08091BE039091BF03A091C00322
:101A0000B091C103BC01CD010E9472145B016C0155
:101A10008091A4039091A503A091A603B091A70380
:101A2000BC01CD010E9472147B018C018091A40342
:101A30009091A503A091A603B091A703BC01CD018D
:101A40000E947214DC01CB01BC01CD012DEC3CECF9
:101A50004CE45DE30E94E812DC01CB01BC01CD0146
:101A600020E030E040E251E40E9495179B01AC0178
:101A7000C801B7010E948A12DC01CB019C01AD01B3
:101A8000C601B5010E9412148823BCF02091BE0348
:101A90003091BF034091C0035091C1038091A403D2
:101AA0009091A503A091A603B091A7032817390729
:101AB0004A075B0714F40E948F058091330381303D
:101AC00009F063C080917C0390917D03A0917E0317
:101AD000B0917F03BC01CD010E9472145B016C01C7
:101AE0008091210390912203A0912303B0912403BC
:101AF000BC01CD010E9472147B018C0180912103F5
:101B000090912203A0912303B0912403BC01CD0145
:101B10000E947214DC01CB01BC01CD012DEC3CEC28
:101B20004CE45DE30E94E812DC01CB01BC01CD0175
:101B300020E030E040E251E40E9495179B01AC01A7
:101B4000C801B7010E948A12DC01CB019C01AD01E2
:101B5000C601B5010E9412148823BCF020917C03B9
:101B600030917D0340917E0350917F03809121034A
:101B700090912203A0912303B091240328173907E1
:101B80004A075B0714F40E9429068091C50381303F
:101B900009F063C08091470390914803A0914903E5
:101BA000B0914A03BC01CD010E9472145B016C012B
:101BB0008091920390919303A0919403B091950327
:101BC000BC01CD010E9472147B018C0180919203B3
:101BD00090919303A0919403B0919503BC01CD0122
:101BE0000E947214DC01CB01BC01CD012DEC3CEC58
:101BF0004CE45DE30E94E812DC01CB01BC01CD01A5
:101C000020E030E040E251E40E9495179B01AC01D6
:101C1000C801B7010E948A12DC01CB019C01AD0111
:101C2000C601B5010E9412148823BCF0209147031D
:101C3000309148034091490350914A038091A80391
:101C40009091A903A091AA03B091AB03281739077B
:101C50004A075B0714F40E94C40680915503813043
:101C600009F52091A8033091A9034091AA0350914E
:101C7000AB038091C8039091C903A091CA03B091AE
:101C8000CB0382179307A407B50764F00E941F03D4
:101C9000109255031092C8031092C9031092CA0300
:101CA0001092CB038091C203813009F520910A0381
:101CB00030910B0340910C0350910D038091BA03B6
:101CC0009091BB03A091BC03B091BD038217930711
:101CD000A407B50764F00E94BA031092C2031092E1
:101CE000BA031092BB031092BC031092BD03809103
:101CF000B903813009F5209182033091830340912B
:101D00008403509185038091250390912603A0912F
:101D10002703B091280382179307A407B50764F03F
:101D20000E94D8041092B903109225031092260342
:101D3000109227031092280380918903813009F5BE
:101D40002091A4033091A5034091A6035091A703CD
:101D50008091BE039091BF03A091C003B091C103D5
:101D600082179307A407B50764F00E9473051092C9
:101D700089031092BE031092BF031092C003109209
:101D8000C10380913303813009F520912103309103
:101D90002203409123035091240380917C0390916E
:101DA0007D03A0917E03B0917F0382179307A40760
:101DB000B50764F00E940D061092330310927C0365
:101DC00010927D0310927E0310927F038091C503D1
:101DD000813009F52091920330919303409194034F
:101DE000509195038091470390914803A091490336
:101DF000B0914A0382179307A407B50764F00E94C5
:101E0000A8061092C503109247031092480310923F
:101E1000490310924A03CF91DF911F910F91FF90D8
:101E2000EF90DF90CF90BF90AF900895DF93CF9366
:101E3000CDB7DEB7E6E0F1E08081882F90E08170D9
:101E40009070009721F480919603813369F0E6E069
:101E5000F1E08081882F90E082709070009781F48B
:101E600080919603803361F40E941F031092550302
:101E70001092C8031092C9031092CA031092CB03A8
:101E8000E6E0F1E08081882F90E084709070009708
:101E900021F480918803813369F0E6E0F1E08081EC
:101EA000882F90E088709070009781F4809188036B
:101EB000803361F40E94BA031092C2031092BA03F5
:101EC0001092BB031092BC031092BD03E6E0F1E058
:101ED0008081882F90E080719070009721F480912C
:101EE0003903813369F0E6E0F1E08081882F90E0EA
:101EF00080729070009781F480913903803361F48F
:101F00000E94D8041092B903109225031092260360
:101F10001092270310922803E6E0F1E08081882FD9
:101F200090E080749070009721F480915803813381
:101F300049F0E6E0F1E08081882384F08091580345
:101F4000803361F40E947305109289031092BE03DE
:101F50001092BF031092C0031092C103CF91DF9182
:101F60000895DF93CF9300D0CDB7DEB79A838983EE
:101F70000BC0E981FA81208189819A8101969A8337
:101F80008983822F0E948702E981FA8180818823D8
:101F900081F70F900F90CF91DF910895DF93CF934A
:101FA000CDB7DEB72A970FB6F894DEBF0FBECDBF10
:101FB0000E949E070E94CC080E94A80A0E94B10BB2
:101FC0000E94160FF7CFDF93CF93CDB7DEB76C9794
:101FD0000FB6F894DEBF0FBECDBF81E08093330310
:101FE00081E30E94C20581E38093580380E49DE071
:101FF000A3E0B0E08093210390932203A0932303F6
:10200000B093240302C00E94B10B8091330381304E
:10201000D1F380E090E0A8ECB2E4898F9A8FAB8F87
:10202000BC8F698D7A8D8B8D9C8D2DEC3CEC4CE2B8
:1020300055E40E94E812DC01CB018D8B9E8BAF8BA7
:10204000B88F6D897E898F89988D20E030E040E8D7
:102050005FE30E94421488232CF481E090E09C8B83
:102060008B8B3FC06D897E898F89988D20E03FEFF3
:102070004FE757E40E94E21318164CF5698D7A8DEC
:102080008B8D9C8D20E030E040E251E40E94E8120C
:10209000DC01CB01BC01CD010E941211DC01CB019E
:1020A0009C8B8B8B0FC084E191E09A8B898B898903
:1020B0009A890197F1F79A8B898B8B899C89019773
:1020C0009C8B8B8B8B899C89009769F714C06D89D9
:1020D0007E898F89988D0E941211DC01CB019C8B27
:1020E0008B8B8B899C89988B8F878F85988901979B
:1020F000F1F7988B8F8781E08093330380E30E9410
:10210000C20581E38093580380E49DE0A3E0B0E042
:102110008093210390932203A0932303B09324037D
:1021200002C00E94B10B809133038130D1F380E073
:1021300090E0A8ECB2E48B879C87AD87BE876B8567
:102140007C858D859E852DEC3CEC4CE255E40E940F
:10215000E812DC01CB018F839887A987BA876F814A
:10216000788589859A8520E030E040E85FE30E9429
:10217000421488232CF481E090E09E838D833FC03D
:102180006F81788589859A8520E03FEF4FE757E496
:102190000E94E21318164CF56B857C858D859E8513
:1021A00020E030E040E251E40E94E812DC01CB0183
:1021B000BC01CD010E941211DC01CB019E838D83F5
:1021C0000FC084E191E09C838B838B819C8101977C
:1021D000F1F79C838B838D819E8101979E838D83F4
:1021E0008D819E81009769F714C06F8178858985FC
:1021F0009A850E941211DC01CB019E838D838D8113
:102200009E819A83898389819A810197F1F79A83C4
:1022100089836C960FB6F894DEBF0FBECDBFCF9109
:10222000DF910895EF92FF920F931F937B018C0132
:1022300020E030E040E05FE40E94121488238CF03C
:10224000C801B70120E030E040E05FE40E948A125C
:102250000E94D0149B01AC012050304040405048B7
:1022600006C0C801B7010E94D0149B01AC01B9019E
:10227000CA011F910F91FF90EF900895A0E0B0E088
:10228000E4E4F1E10C945E17DC012B01FA019C916E
:10229000923008F439C1EB018881823008F433C1EF
:1022A000943069F4843009F02FC111969C911197F4
:1022B0008981981709F428C1A0E0B2E025C18430D3
:1022C00009F421C18230A9F4923009F01DC19A01AC
:1022D000AD0188E0EA010990AE01E90109929E0191
:1022E0008150C1F7E201898111969C9189238183F4
:1022F00008C1923009F407C112962D903C901397B3
:10230000EB018A819B811496AD90BD90CD90DC90BD
:102310001797EC80FD800E811F819101281B390BDE
:10232000B90137FF04C066277727621B730B603241
:1023300071050CF061C0121613066CF537014801E7
:10234000062E04C096948794779467940A94D2F7E3
:1023500021E030E040E050E004C0220F331F441F72
:10236000551F6A95D2F721503040404050402E21F1
:102370003F2140235123211531054105510521F00D
:1023800021E030E040E050E079018A01E628F728BA
:10239000082919293CC0232BD1F1260E371E3501FF
:1023A0004601062E04C096948794779467940A9405
:1023B000D2F721E030E040E050E004C0220F331FAC
:1023C000441F551F6A95D2F721503040404050407D
:1023D0002A213B214C215D21211531054105510563
:1023E00021F021E030E040E050E059016A01A628E8
:1023F000B728C828D9280BC0821593052CF01C01DA
:10240000AA24BB24650103C0EE24FF248701119692
:102410009C91D20111968C91981709F445C099238B
:1024200039F0A80197012A193B094C095D0906C03A
:10243000A60195012E193F09400B510B57FD08C00D
:1024400011823382228224833583468357831DC0C1
:1024500081E081833382228288279927DC01821BD5
:10246000930BA40BB50B84839583A683B7830DC010
:10247000220F331F441F551F248335834683578300
:102480008281938101979383828324813581468160
:102490005781DA01C9010197A109B1098F5F9F4FE7
:1024A000AF4FBF4328F30BC0918333822282EA0CE3
:1024B000FB1C0C1D1D1DE482F5820683178383E03F
:1024C0008083248135814681578157FF1AC0C90115
:1024D000AA2797FDA095BA2F81709070A070B07058
:1024E0005695479537952795822B932BA42BB52B83
:1024F00084839583A683B783828193810196938396
:102500008283DF0101C0D201CD01CDB7DEB7E2E1A8
:102510000C947A17A0E2B0E0E0E9F2E10C946A17BB
:1025200069837A838B839C832D833E834F83588773
:10253000E9E0EE2EF12CEC0EFD1ECE010196B70166
:102540000E9448168E010F5E1F4FCE010596B801FE
:102550000E9448168A8991E089278A8BC701B801B1
:10256000AE01475E5F4F0E943E110E947315A09618
:10257000E6E00C948617A0E2B0E0E1ECF2E10C9406
:102580006A1769837A838B839C832D833E834F8371
:102590005887F9E0EF2EF12CEC0EFD1ECE010196CE
:1025A000B7010E9448168E010F5E1F4FCE0105969F
:1025B000B8010E944816C701B801AE01475E5F4FDF
:1025C0000E943E110E947315A096E6E00C948617B7
:1025D000A0E2B0E0EEEEF2E10C945E1769837A833C
:1025E0008B839C832D833E834F835887CE01019636
:1025F000BE01675F7F4F0E944816CE010596BE015F
:102600006F5E7F4F0E9448169985923088F08989C5
:102610008230C8F0943019F4823051F404C0843010
:1026200029F4923081F480E092E0C6C0923049F4FF
:1026300020E09A858A89981321E02A87CE0109969D
:10264000BBC0823049F420E09A858A89981321E042
:102650002A8BCE014196B0C02D843E844F84588889
:102660006D887E888F88988CEE24FF248701AA24A9
:10267000BB24650140E050E060E070E0E0E0F0E0A5
:10268000C10181709070892BE9F0E60CF71C081DE0
:10269000191D9A01AB012A0D3B1D4C1D5D1D80E0EB
:1026A00090E0A0E0B0E0E614F7040805190520F476
:1026B00081E090E0A0E0B0E0BA01A901480F591F05
:1026C0006A1F7B1FAA0CBB1CCC1CDD1C97FE08C01C
:1026D00081E090E0A0E0B0E0A82AB92ACA2ADB2A6B
:1026E0003196E032F10549F0660C771C881C991C84
:1026F0005694479437942794C3CFFA85EA892B8957
:102700003C898B859C85280F391F2E5F3F4F17C052
:10271000CA0181709070892B61F016950795F79426
:10272000E79480E090E0A0E0B0E8E82AF92A0A2BDC
:102730001B2B76956795579547952F5F3F4F77FDF4
:10274000E7CF0CC0440F551F661F771F17FD416070
:10275000EE0CFF1C001F111F21503040403090E054
:10276000590790E0690790E4790760F32B8F3C8F5D
:10277000DB01CA018F779070A070B0708034910532
:10278000A105B10561F447FD0AC0E114F10401059A
:10279000110529F0405C5F4F6F4F7F4F40781A8ED4
:1027A000FE1711F081E08A8F4D8F5E8F6F8F78A3B7
:1027B00083E0898FCE0149960E947315A096E2E1CD
:1027C0000C947A17A8E1B0E0E8EEF3E10C946A17F4
:1027D00069837A838B839C832D833E834F835887C1
:1027E00089E0E82EF12CEC0EFD1ECE010196B7011A
:1027F0000E9448168E010F5E1F4FCE010596B8014C
:102800000E9448168985823040F08989823028F0FC
:10281000C701B8010E94C01601C08FEF6896E6E0BC
:102820000C948617A8E1B0E0E8E1F4E10C946A1793
:1028300069837A838B839C832D833E834F83588760
:1028400089E0E82EF12CEC0EFD1ECE010196B701B9
:102850000E9448168E010F5E1F4FCE010596B801EB
:102860000E9448168985823040F08989823028F09C
:10287000C701B8010E94C01601C08FEF6896E6E05C
:102880000C948617A8E1B0E0E8E4F4E10C946A1730
:1028900069837A838B839C832D833E834F83588700
:1028A00089E0E82EF12CEC0EFD1ECE010196B70159
:1028B0000E9448168E010F5E1F4FCE010596B8018B
:1028C0000E9448168985823040F08989823028F03C
:1028D000C701B8010E94C01601C081E06896E6E019
:1028E0000C948617A8E0B0E0E8E7F4E10C946717D1
:1028F0009B01AC0183E08983DA01C9018827B7FD18
:1029000083959927AA27BB27B82E211531054105A4
:10291000510519F482E089833AC08823A9F0203058
:1029200080E0380780E0480780E8580729F460E035
:1029300070E080E09FEC30C0EE24FF248701E21AB3
:10294000F30A040B150B02C079018A018EE1C82E2F
:10295000D12CDC82CB82ED82FE820F831887C801E6
:10296000B7010E94241501971816190684F4082E41
:1029700004C0EE0CFF1C001F111F0A94D2F7ED8259
:10298000FE820F831887C81AD90ADC82CB82BA82EA
:10299000CE0101960E9473152896E9E00C948317E6
:1029A000ACE0B0E0E6EDF4E10C946E1769837A8355
:1029B0008B839C83CE010196BE016B5F7F4F0E948B
:1029C00048168D81823061F1823050F1843021F4DB
:1029D0008E81882351F12EC02F81388537FD20C08C
:1029E0006E812F3131051CF06623F9F023C08EE192
:1029F00090E0821B930B29853A854B855C8504C04A
:102A000056954795379527958A95D2F76623B1F065
:102A100050954095309521953F4F4F4F5F4F0EC0D9
:102A200020E030E040E050E009C02FEF3FEF4FEFF3
:102A30005FE704C020E030E040E050E8B901CA019F
:102A40002C96E2E00C948A17EF92FF920F931F935B
:102A50007B018C0180E0E81680E0F80681E0080741
:102A600080E0180788F48FEFE816F10401051105DE
:102A700031F028F088E090E0A0E0B0E017C080E0FE
:102A800090E0A0E0B0E012C080E0E81680E0F80638
:102A900080E0080781E0180728F088E190E0A0E0D6
:102AA000B0E004C080E190E0A0E0B0E020E230E0DF
:102AB00040E050E0281B390B4A0B5B0B04C0169515
:102AC0000795F794E7948A95D2F7F701E85FFD4FF1
:102AD0008081281B310941095109C9011F910F91BA
:102AE000FF90EF900895DF92EF92FF920F931F9364
:102AF000FC01E480F58006811781D18080818230DD
:102B000048F480E090E0A0E1B0E0E82AF92A0A2B3E
:102B10001B2BA5C0843009F49FC0823021F4EE2421
:102B2000FF24870105C0E114F1040105110519F422
:102B3000E0E0F0E096C0628173819FEF6238790730
:102B40000CF05BC022E83FEF261B370B2A31310522
:102B50002CF020E030E040E050E02AC0B801A701AE
:102B6000022E04C076956795579547950A94D2F73B
:102B700081E090E0A0E0B0E004C0880F991FAA1F98
:102B8000BB1F2A95D2F70197A109B1098E219F2178
:102B9000A023B1230097A105B10521F081E090E0C9
:102BA000A0E0B0E09A01AB01282B392B4A2B5B2B1C
:102BB000DA01C9018F779070A070B07080349105F0
:102BC000A105B10539F427FF09C0205C3F4F4F4FE5
:102BD0005F4F04C0215C3F4F4F4F5F4FE0E0F0E09C
:102BE0002030A0E03A07A0E04A07A0E45A0710F01E
:102BF000E1E0F0E079018A0127C06038710564F5F1
:102C0000FB01E158FF4FD801C7018F779070A0708A
:102C1000B07080349105A105B10539F4E7FE0DC00F
:102C200080E490E0A0E0B0E004C08FE390E0A0E09A
:102C3000B0E0E80EF91E0A1F1B1F17FF05C016950E
:102C40000795F794E794319687E016950795F794E2
:102C5000E7948A95D1F705C0EE24FF248701EFEFB2
:102C6000F0E06E2F679566276795902F9F77D79432
:102C7000DD24D7948E2F8695492F462B582F5D291A
:102C8000B701CA011F910F91FF90EF90DF90089557
:102C9000FC01DB01408151812281622F6F7770E05E
:102CA000221F2227221F9381892F880F822B282FF2
:102CB00030E0991F9927991F11969C931197211520
:102CC0003105A9F5411551056105710511F482E041
:102CD00037C082E89FEF13969C938E9312979A01C8
:102CE000AB0167E0220F331F441F551F6A95D1F7D0
:102CF00083E08C930DC0220F331F441F551F129683
:102D00008D919C911397019713969C938E93129794
:102D1000203080E0380780E0480780E4580758F307
:102D200014962D933D934D935C93179708952F3FE1
:102D3000310579F4411551056105710519F484E0F7
:102D40008C93089564FF03C081E08C9312C01C92A1
:102D500010C02F57304013963C932E93129783E068
:102D60008C9387E0440F551F661F771F8A95D1F714
:102D7000706414964D935D936D937C9317970895AB
:102D80001F93DC01FB019C91923008F447C08081C5
:102D9000823008F443C0943051F411961C91843071
:102DA00099F58181682F70E0611B71093FC0843003
:102DB00021F0923031F48230B9F18181882389F198
:102DC0002DC011961C9111978230F1F08181181756
:102DD000D9F412962D913C91139782819381821799
:102DE000930794F028173907BCF014968D919D91A4
:102DF0000D90BC91A02D24813581468157812817E3
:102E000039074A075B0718F4112341F00AC08217FB
:102E10009307A407B50740F4112319F061E070E0AF
:102E200005C06FEF7FEF02C060E070E0CB011F9143
:102E300008951F93FC0199278827BC01E8941191FC
:102E40001032E9F3193010F01E30C8F31B3251F084
:102E50001D3249F4689406C00E944917610F711D24
:102E6000811D911D119110531A30B0F33EF49095CD
:102E70008095709561957F4F8F4F9F4F1F9108955B
:102E8000FB01DC0102C001900D9241505040D8F787
:102E90000895592F482F372F262F660F771F881F29
:102EA000991F660F771F881F991F620F731F841F5A
:102EB000951F660F771F881F991F08952F923F92C5
:102EC0004F925F926F927F928F929F92AF92BF923A
:102ED000CF92DF92EF92FF920F931F93CF93DF93E6
:102EE000CDB7DEB7CA1BDB0B0FB6F894DEBF0FBE43
:102EF000CDBF09942A88398848885F846E847D8490
:102F00008C849B84AA84B984C884DF80EE80FD8091
:102F10000C811B81AA81B981CE0FD11D0FB6F89407
:102F2000DEBF0FBECDBFED010895990FBB0B550F4E
:102F3000AA0BE0E8FEEF16161706E807F90770F08F
:102F400012161306E407F50760F0BA1754F031F4CF
:102F50002617370748075907A7951BF4B901CA0177
:0C2F6000BA2FB69597950895F894FFCF0E
:102F6C000000000000000000000102020303030344
:102F7C0004040404040404040505050505050505FD
:102F8C0005050505050505050606060606060606DD
:102F9C0006060606060606060606060606060606C5
:102FAC0006060606060606060707070707070707AD
:102FBC000707070707070707070707070707070795
:102FCC000707070707070707070707070707070785
:102FDC000707070707070707070707070707070775
:102FEC00070707070707070708080808080808085D
:102FFC000808080808080808080808080808080845
:10300C000808080808080808080808080808080834
:10301C000808080808080808080808080808080824
:10302C000808080808080808080808080808080814
:10303C000808080808080808080808080808080804
:10304C0008080808080808080808080808080808F4
:10305C0008080808080808080808080808080808E4
:08306C0008080808080808081C
:00000001FF
