:100000000C9472000C948F000C948F000C948F0051
:100010000C948F000C948F000C948F000C948F0024
:100020000C948F000C948F000C948F000C948F0014
:100030000C948F000C948F000C948F000C948F0004
:100040000C9491000C948F000C948F000C948F00F2
:100050000C948F000C948F000C948F000C948F00E4
:100060000C948F000C9431020C948F000C948F0030
:100070000C948F000C948F000C948F000C94EB0068
:100080000C948F000C948F000C948F000C948F00B4
:100090000C94F9010C948F000C948F000C948F0039
:1000A0000C948F000C9445010C948F000C948F00DD
:1000B0000C948F000C948F000C949F010C948F0073
:1000C0000C948F000C948F000C948F000C948F0074
:1000D0000C948F000C948F000C948F000C948F0064
:1000E0000C948F0011241FBECFEFD1E2DEBFCDBF35
:1000F00013E0A0E0B2E0ECE6F0E302C005900D9260
:10010000AC30B107D9F713E0ACE0B3E001C01D9209
:10011000A13DB107E1F70E944E100C9434180C94E5
:1001200000001F920F920FB60F9211248F939F938E
:10013000AF93BF93DF93CF93CDB7DEB78091CC035E
:100140009091CD03A091CE03B091CF030196A11D54
:10015000B11D8093CC039093CD03A093CE03B093B5
:10016000CF0380919A038133A1F48091720390911F
:100170007303A0917403B09175030196A11DB11D85
:100180008093720390937303A0937403B0937503E9
:1001900017C080919A03803399F4809172039091F3
:1001A0007303A0917403B09175030197A109B1097C
:1001B0008093720390937303A0937403B0937503B9
:1001C000CF91DF91BF91AF919F918F910F900FBE13
:1001D0000F901F9018951F920F920FB60F92112437
:1001E0008F939F93AF93BF93DF93CF93CDB7DEB73A
:1001F0008091BE039091BF03A091C003B091C10351
:100200000196A11DB11D8093BE039093BF03A093DF
:10021000C003B093C10380918C038133A1F480911A
:10022000130390911403A0911503B0911603019646
:10023000A11DB11D8093130390931403A093150384
:10024000B093160317C080918C03803399F480918A
:10025000130390911403A0911503B0911603019715
:10026000A109B1098093130390931403A09315037C
:10027000B0931603CF91DF91BF91AF919F918F9172
:100280000F900FBE0F901F9018951F920F920FB6F0
:100290000F9211248F939F93AF93BF93DF93CF93CC
:1002A000CDB7DEB78091290390912A03A0912B034B
:1002B000B0912C030196A11DB11D80932903909349
:1002C0002A03A0932B03B0932C0380913C0381332A
:1002D000A1F48091920390919303A0919403B09123
:1002E00095030196A11DB11D8093920390939303F2
:1002F000A0939403B093950317C080913C0380337F
:1003000099F48091920390919303A0919403B091FA
:1003100095030197A109B1098093920390939303E8
:10032000A0939403B0939503CF91DF91BF91AF91C8
:100330009F918F910F900FBE0F901F9018951F9255
:100340000F920FB60F9211248F939F93AF93BF9389
:10035000DF93CF93CDB7DEB78091C2039091C303F3
:10036000A091C403B091C5030196A11DB11D809356
:10037000C2039093C303A093C403B093C5038091B9
:100380003D038133A1F480918E0390918F03A0915E
:100390009003B09191030196A11DB11D80938E032E
:1003A00090938F03A0939003B093910317C0809113
:1003B0003D03803399F480918E0390918F03A09137
:1003C0009003B09191030197A109B10980938E0325
:1003D00090938F03A0939003B0939103CF91DF91FB
:1003E000BF91AF919F918F910F900FBE0F901F9073
:1003F00018951F920F920FB60F9211248F939F930F
:10040000EF93FF93DF93CF930F92CDB7DEB7EEEC70
:10041000F0E08081898380910D03882F90E0FC01BA
:10042000E95EFC4F8981808380910D03833031F434
:1004300081E08093480310920D0307C080910D0363
:100440008F5F80930D03109248030F90CF91DF913F
:10045000FF91EF919F918F910F900FBE0F901F9082
:1004600018951F920F920FB60F9211242F933F935E
:100470004F935F936F937F938F939F93AF93BF93AC
:10048000EF93FF93DF93CF9300D000D000D0CDB790
:10049000DEB7E6ECF0E08081898380910C03882F41
:1004A00090E0FC01E556FC4F8981808389818D3085
:1004B00011F580910C038A3020F081E080935D0378
:1004C00017C0CE0102962BE933E0B90144E050E0B9
:1004D0000E94C017CE0102960E949917DC01CB0141
:1004E0008093000290930102A0930202B093030252
:1004F00010920C0307C080910C038F5F80930C0354
:1005000010925D032696DEBFCDBFCF91DF91FF91A4
:10051000EF91BF91AF919F918F917F916F915F917B
:100520004F913F912F910F900FBE0F901F901895F4
:10053000DF93CF9300D0CDB7DEB79A838983E5EC04
:10054000F0E089819A81892F99278083E4ECF0E09B
:1005500089818083E1ECF0E088E98083E2ECF0E0DF
:1005600086E080830F900F90CF91DF910895DF9305
:10057000CF930F92CDB7DEB78983E0ECF0E08081B6
:10058000882F90E0807290700097B9F3E6ECF0E06D
:10059000898180830F90CF91DF910895DF93CF936E
:1005A00000D0CDB7DEB79A838983EDECF0E0898186
:1005B0009A81892F99278083ECECF0E089818083F0
:1005C000E9ECF0E088E98083EAECF0E086E0808303
:1005D0000F900F90CF91DF910895DF93CF930F92FB
:1005E000CDB7DEB78983E8ECF0E08081882F90E01A
:1005F000807290700097B9F3EEECF0E0898180830F
:100600000F90CF91DF910895DF93CF930F92CDB7E5
:10061000DEB789831092CC031092CD031092CE03E3
:100620001092CF03E9E8F0E080910002909101027E
:10063000A0910202B0910302892F9A2FAB2FBB2702
:10064000A7FDBA958083E8E8F0E0809100029091E0
:100650000102A0910202B09103028083AAE0B1E0FE
:10066000EAE0F1E080818C608C938981803341F4F1
:10067000ABE0B1E0EBE0F1E08081877F8C930AC0D2
:100680008981813339F4ABE0B1E0EBE0F1E08081C6
:1006900088608C93ABE0B1E0EBE0F1E080818460B6
:1006A0008C93A0E8B0E0E0E8F0E0808180688C9373
:1006B000A2E0B1E0E2E0F1E08081807C8C930F90D9
:1006C000CF91DF910895DF93CF93CDB7DEB7ABE045
:1006D000B1E0EBE0F1E080818B7F8C93A0E8B0E0AB
:1006E000E0E8F0E080818F778C93A2E0B1E0E2E077
:1006F000F1E0808180628C93CF91DF910895DF9348
:10070000CF93CDB7DEB7EBE8F0E01082EAE8F0E097
:100710008FEF8083ABE0B1E0EBE0F1E080818460BB
:100720008C93A0E8B0E0E0E8F0E0808180688C93F2
:10073000CF91DF910895DF93CF9300D0CDB7DEB78F
:100740009A838983E9E8F0E089819A81892F990F5A
:10075000990B8083E8E8F0E0898180830F900F9007
:10076000CF91DF910895DF93CF930F92CDB7DEB78E
:1007700089831092BE031092BF031092C00310929F
:10078000C103EBE8F0E08091000290910102A0919A
:100790000202B0910302892F9A2FAB2FBB27A7FD2E
:1007A000BA958083EAE8F0E080910002909101021E
:1007B000A0910202B09103028083AAE0B1E0EAE0D6
:1007C000F1E0808180638C938981803341F4ABE0D8
:1007D000B1E0EBE0F1E080818F7D8C930AC08981EC
:1007E000813339F4ABE0B1E0EBE0F1E0808180628D
:1007F0008C93ABE0B1E0EBE0F1E0808180618C9321
:10080000A0E8B0E0E0E8F0E0808180628C93A2E0B4
:10081000B1E0E2E0F1E0808180788C930F90CF919D
:10082000DF910895DF93CF93CDB7DEB7ABE0B1E0B2
:10083000EBE0F1E080818F7E8C93A0E8B0E0E0E80F
:10084000F0E080818F7D8C93A2E0B1E0E2E0F1E006
:10085000808180648C93CF91DF910895DF93CF9353
:10086000CDB7DEB7E9E8F0E01082E8E8F0E08FEF1E
:100870008083ABE0B1E0EBE0F1E0808180618C93BC
:10088000A0E8B0E0E0E8F0E0808180628C93CF9156
:10089000DF910895DF93CF9300D0CDB7DEB79A8371
:1008A0008983EBE8F0E089819A81892F990F990B70
:1008B0008083EAE8F0E0898180830F900F90CF91E8
:1008C000DF910895DF93CF93CDB7DEB72F970FB6A3
:1008D000F894DEBF0FBECDBF8F8710922903109210
:1008E0002A0310922B0310922C03AAE0B1E0EAE055
:1008F000F1E08081806C8C93E9E9F0E08091000266
:1009000090910102A0910202B0910302892F9A2FC7
:10091000AB2FBB27A7FDBA958083E8E9F0E0809173
:10092000000290910102A0910202B0910302808323
:10093000ABE0B1E0EBE0F1E0808180648C938F85E7
:10094000803341F4ABE0B1E0EBE0F1E080818F7700
:100950008C9384C08F85813309F080C0ABE0B1E017
:10096000EBE0F1E080818F778C9380E090E0AAE764
:10097000B4E48B879C87AD87BE876B857C858D852E
:100980009E852DEC3CEC4CE255E40E946813DC01A2
:10099000CB018F839887A987BA876F8178858985EE
:1009A0009A8520E030E040E85FE30E94C21488238B
:1009B0002CF481E090E09E838D833FC06F81788529
:1009C00089859A8520E03FEF4FE757E40E94621443
:1009D00018164CF56B857C858D859E8520E030E072
:1009E00040E251E40E946813DC01CB01BC01CD015F
:1009F0000E949211DC01CB019E838D830FC084E1A4
:100A000091E09C838B838B819C810197F1F79C8380
:100A10008B838D819E8101979E838D838D819E81A5
:100A2000009769F714C06F81788589859A850E943F
:100A30009211DC01CB019E838D838D819E819A83EF
:100A4000898389819A810197F1F79A838983ABE041
:100A5000B1E0EBE0F1E0808180688C93A0E9B0E048
:100A6000E0E9F0E0808180688C93A5E2B0E0E5E207
:100A7000F0E080818E7F8C932F960FB6F894DEBFC6
:100A80000FBECDBFCF91DF910895DF93CF93CDB748
:100A9000DEB7ABE0B1E0EBE0F1E080818F7B8C93DF
:100AA000A0E9B0E0E0E9F0E080818F778C93A5E2E7
:100AB000B0E0E5E2F0E0808181608C93CF91DF913E
:100AC0000895DF93CF93CDB7DEB7E9E9F0E0108268
:100AD000E8E9F0E08FEF8083ABE0B1E0EBE0F1E03C
:100AE000808180648C93A0E9B0E0E0E9F0E080814F
:100AF00080688C93CF91DF910895DF93CF9300D0DE
:100B0000CDB7DEB79A838983E9E9F0E089819A81DC
:100B1000892F990F990B8083E8E9F0E08981808320
:100B20000F900F90CF91DF910895DF93CF930F92A5
:100B3000CDB7DEB789831092C2031092C30310921F
:100B4000C4031092C503EBE9F0E08091000290919C
:100B50000102A0910202B0910302892F9A2FAB2FBC
:100B6000BB27A7FDBA958083EAE9F0E080910002F7
:100B700090910102A0910202B09103028083AAE247
:100B8000B0E0EAE2F0E0808183608C938981803379
:100B900041F4ABE2B0E0EBE2F0E080818D7F8C933A
:100BA0000AC08981813339F4ABE2B0E0EBE2F0E0D6
:100BB000808182608C93ABE2B0E0EBE2F0E0808178
:100BC00081608C93A0E9B0E0E0E9F0E08081806290
:100BD0008C93A5E2B0E0E5E2F0E080818D7F8C931C
:100BE0000F90CF91DF910895DF93CF93CDB7DEB70C
:100BF000ABE2B0E0EBE2F0E080818E7F8C93A0E985
:100C0000B0E0E0E9F0E080818F7D8C93A5E2B0E078
:100C1000E5E2F0E0808182608C93CF91DF910895CE
:100C2000DF93CF93CDB7DEB7EAE9F0E08FEF90E046
:100C300091838083ABE2B0E0EBE2F0E08081816001
:100C40008C93A0E9B0E0E0E9F0E0808180628C93D1
:100C5000CF91DF910895DF93CF9300D0CDB7DEB76A
:100C60009A838983EBE9F0E089819A81892F990F32
:100C7000990B8083EAE9F0E0898180830F900F90DF
:100C8000CF91DF910895DF93CF930F92CDB7DEB769
:100C90008983109280031092810310928203109234
:100CA0008303E9EAF0E08091000290910102A091B3
:100CB0000202B0910302892F9A2FAB2FBB27A7FD09
:100CC000BA958083E8EAF0E08091000290910102F9
:100CD000A0910202B09103028083AAE2B0E0EAE2AE
:100CE000F0E08081806C8C938981803341F4ABE2A9
:100CF000B0E0EBE2F0E080818F778C930AC08981CD
:100D0000813339F4ABE2B0E0EBE2F0E0808180685F
:100D10008C93ABE2B0E0EBE2F0E0808180648C93F6
:100D2000A0EAB0E0E0EAF0E0808180688C93A5E280
:100D3000B0E0E5E2F0E08081887F8C930F90CF9166
:100D4000DF910895DF93CF93CDB7DEB7ABE2B0E08C
:100D5000EBE2F0E080818F7B8C93A0EAB0E0E0EAE8
:100D6000F0E080818F778C93A5E2B0E0E5E2F0E0DF
:100D7000808184608C93CF91DF910895DF93CF932E
:100D8000CDB7DEB7E9EAF0E01082E8EAF0E08FEFF5
:100D90008083ABE2B0E0EBE2F0E0808180648C9392
:100DA000A0EAB0E0E0EAF0E0808180688C93CF9127
:100DB000DF910895DF93CF9300D0CDB7DEB79A834C
:100DC0008983E9EAF0E089819A81892F990F990B4B
:100DD0008083E8EAF0E0898180830F900F90CF91C3
:100DE000DF910895DF93CF930F92CDB7DEB789835C
:100DF00010924B0310924C0310924D0310924E032D
:100E0000EBEAF0E08091000290910102A0910202D1
:100E1000B0910302892F9A2FAB2FBB27A7FDBA955C
:100E20008083EAEAF0E08FEF8083A4E2B0E0E4E2BE
:100E3000F0E0808188618C938981803341F4A5E260
:100E4000B0E0E5E2F0E080818F7E8C930AC089817A
:100E5000813339F4A5E2B0E0E5E2F0E08081806121
:100E60008C93A5E2B0E0E5E2F0E0808188608C93AD
:100E7000A0EAB0E0E0EAF0E0808180628C93AEE22C
:100E8000B0E0EEE2F0E0808180788C930F90CF911B
:100E9000DF910895DF93CF93CDB7DEB7A5E2B0E041
:100EA000E5E2F0E08081877F8C93A0EAB0E0E0EAA1
:100EB000F0E080818F7D8C93AEE2B0E0EEE2F0E076
:100EC000808180648C93CF91DF910895DF93CF93DD
:100ED000CDB7DEB7EBEAF0E01082EAEAF0E08FEFA0
:100EE0008083A5E2B0E0E5E2F0E0808188608C9349
:100EF000A0EAB0E0E0EAF0E0808180628C93CF91DC
:100F0000DF910895DF93CF9300D0CDB7DEB79A83FA
:100F10008983EBEAF0E089819A81892F990F990BF7
:100F20008083EAEAF0E0898180830F900F90CF916F
:100F3000DF910895DF93CF93CDB7DEB7A4E2B0E0A1
:100F4000E4E2F0E0808180668C93E9E8F0E01082D2
:100F5000E8E8F0E08FEF8083EBE8F0E01082EAE869
:100F6000F0E08FEF8083E0E8F0E083E08083E1E869
:100F7000F0E089E08083AFE6B0E0EFE6F0E080816A
:100F800080628C93CF91DF910895DF93CF93CDB79B
:100F9000DEB7ADE2B0E0EDE2F0E0808188618C93F5
:100FA000E9E9F0E01082E8E9F0E080E48083EBE931
:100FB000F0E01082EAE9F0E080E48083ADE2B0E0A6
:100FC000EDE2F0E080818F778C93E0E9F0E083E060
:100FD0008083E1E9F0E089E08083A1E7B0E0E1E728
:100FE000F0E0808180628C93CF91DF910895DF9350
:100FF000CF93CDB7DEB7A1E0B1E0E1E0F1E08081D1
:1010000088618C93E9EAF0E081E08083E8EAF0E02F
:101010008FEF8083EBEAF0E081E08083EAEAF0E0A2
:101020008FEF8083AAE0B1E0EAE0F1E080818E7F7B
:101030008C93E0EAF0E083E08083E1EAF0E089E08D
:101040008083A2E7B0E0E2E7F0E0808180628C93E9
:10105000CF91DF910895DF93CF93CDB7DEB7E0E274
:10106000F1E01082E1E2F1E089E08083A3E7B0E003
:10107000E3E7F0E0808180628C93CF91DF91089567
:10108000DF93CF93CDB7DEB7F894E4E7F0E01082BA
:10109000E4E2F0E08FEF8083E5E2F0E087E0808338
:1010A000EDE2F0E08FEF8083EEE2F0E080E4808319
:1010B000E1E0F1E08FEF8083E2E0F1E080E6808321
:1010C000EBE0F1E01082EAE0F1E08CEF8083E8E011
:1010D000F1E08FEF8083E7E0F1E0108287E490E0B9
:1010E0000E94980287E490E00E94CE020E949A0734
:1010F0000E94C5070E94F7070E942B0810925D030B
:1011000010924803109272031092730310927403AA
:10111000109275031092130310921403109215038A
:10112000109216031092920310929303109294035C
:101130001092950310928E0310928F0310929003D9
:1011400010929103109238031092390310923A03CF
:1011500010923B031092CC031092CD031092CE0359
:101160001092CF031092BE031092BF031092C003DF
:101170001092C1031092290310922A0310922B039C
:1011800010922C031092C2031092C3031092C40356
:101190001092C50310928003109281031092820373
:1011A000109283037894CF91DF910895DF93CF93CA
:1011B000CDB7DEB72A970FB6F894DEBF0FBECDBF0E
:1011C0009A8789871D821E821F82188629C0898579
:1011D0009A85CC01A0E0B0E089839A83AB83BC837D
:1011E0000BC089819A81AB81BC810197A109B109AA
:1011F00089839A83AB83BC8389819A81AB81BC81CB
:10120000181619061A061B0664F38D819E81AF819C
:10121000B8850196A11DB11D8D839E83AF83B887CC
:101220008D819E81AF81B88584369105A105B10578
:1012300074F22A960FB6F894DEBF0FBECDBFCF91E1
:10124000DF910895DF93CF93CDB7DEB72A970FB61E
:10125000F894DEBF0FBECDBF9A8789871D821E829C
:101260001F82188629C089859A85CC01A0E0B0E04C
:1012700089839A83AB83BC830BC089819A81AB81BC
:10128000BC810197A109B10989839A83AB83BC838F
:1012900089819A81AB81BC81181619061A061B0632
:1012A00064F38D819E81AF81B8850196A11DB11D2A
:1012B0008D839E83AF83B8878D819E81AF81B885F2
:1012C00082309105A105B10574F22A960FB6F89403
:1012D000DEBF0FBECDBFCF91DF910895DF93CF93D7
:1012E000CDB7DEB728970FB6F894DEBF0FBECDBFDF
:1012F00080915D03813009F0C4C180EB93E02BE95C
:1013000033E0B9014DE050E00E94C0178091B10375
:10131000282F30E038872F838F819885803391057F
:1013200009F420C12F8138852133310509F0A7C187
:101330008091B003282F30E03E832D838D819E81E4
:101340008333910509F482C02D813E812433310518
:1013500064F48D819E8181339105D1F02D813E8190
:101360002233310509F44FC08AC18D819E818533B6
:10137000910509F4B1C02D813E81253331050CF46E
:1013800088C08D819E818633910509F4C8C077C1DC
:1013900081E0809359038091B2030E9404038091FD
:1013A000B20380939A038DE293E023EB33E0B9011B
:1013B00049E050E00E94C0178DE293E00E94991727
:1013C000DC01CB018093AC039093AD03A093AE03FB
:1013D000B093AF031A8219820DC089819A81FC01F2
:1013E000E35DFC4F80810E94B70289819A8101965A
:1013F0009A83898389819A81FC01E35DFC4F808116
:10140000882359F73CC181E08093C6038091B203E1
:101410000E94B3038091B20380938C038EE393E028
:1014200023EB33E0B90149E050E00E94C0178EE39E
:1014300093E00E949917DC01CB0180930E039093F7
:101440000F03A0931003B093110319C181E080939F
:10145000BD038091B2030E9462048091B203809325
:101460003C0388E693E023EB33E0B90149E050E028
:101470000E94C01788E693E00E949917DC01CB0117
:101480008093860390938703A0938803B093890386
:10149000F6C081E080938D038091B2030E94950590
:1014A0008091B20380933D0386E793E023EB33E022
:1014B000B90149E050E00E94C01786E793E00E941E
:1014C0009917DC01CB018093A8039093A903A09303
:1014D000AA03B093AB03D3C081E08093370380911C
:1014E000B2030E9443068091B20380935C038FE4B1
:1014F00093E023EB33E0B90149E050E00E94C017CC
:101500008FE493E00E949917DC01CB0180932503BF
:1015100090932603A0932703B0932803B0C081E0E3
:101520008093C9038091B2030E94F2068091B203B6
:101530008093D0038EE593E023EB33E0B90149E0DB
:1015400050E00E94C0178EE593E00E949917DC01DD
:10155000CB018093960390939703A0939803B09345
:1015600099038DC08091B003282F30E03C832B83FA
:101570008B819C818333910509F442C02B813C818E
:10158000243331055CF48B819C8181339105C1F05A
:101590002B813C812233310519F171C08B819C81F3
:1015A0008533910509F44CC02B813C8125333105ED
:1015B000BCF18B819C818633910509F451C05FC0D9
:1015C0000E9463031092590382E380939A0310925E
:1015D000CC031092CD031092CE031092CF034FC0D4
:1015E0000E9412041092C60382E380938C0310922F
:1015F000BE031092BF031092C0031092C1033FC0FC
:101600000E9445051092BD0382E380933C03109233
:10161000290310922A0310922B0310922C032FC03F
:101620000E94F40510928D0382E380933D03109293
:10163000C2031092C3031092C4031092C5031FC0CB
:101640000E94A2061092370382E380935C031092FB
:1016500080031092810310928203109283030FC0C3
:101660000E944A071092C90382E38093D00310922C
:101670004B0310924C0310924D0310924E031092A4
:101680005D0328960FB6F894DEBF0FBECDBFCF9195
:10169000DF910895DF93CF93CDB7DEB780914803F4
:1016A000813091F4809117030E94670B8091180399
:1016B0000E94670B809119030E94670B80911A03A7
:1016C0000E94670B10924803CF91DF910895DF933A
:1016D000CF9300D00F92CDB7DEB78B838B81882F4D
:1016E00090E0807C9070009709F03FC08B81882F3C
:1016F00090E09C012F7130708FE190E0AC01249F4D
:10170000C001259F900D349F900D11249093C80324
:101710008093C7038B81882F90E09C012F713070DC
:101720008FE190E0AC01249FC001259F900D349F74
:10173000900D11240E949B038B81882F90E08F7164
:101740009070009719F40E946303A7C08B81807288
:101750008A838A81882319F480E3898302C081E324
:10176000898389810E94040398C08B81882F90E02F
:10177000807C90708034910559F58B81882F90E0A2
:101780009C012F7130708FE190E0AC01249FC0016B
:10179000259F900D349F900D11240E944A048B8147
:1017A000882F90E08F719070009719F40E941204B6
:1017B00074C08B8180728A838A81882319F480E3C4
:1017C000898302C081E3898389810E94B30365C054
:1017D0008B81882F90E0807C90708038910559F53E
:1017E0008B81882F90E09C012F7130708FE190E009
:1017F000AC01249FC001259F900D349F900D1124B2
:101800000E947D058B81882F90E08F7190700097EA
:1018100019F40E94450541C08B8180728A838A81B8
:10182000882319F480E3898302C081E38983898155
:101830000E94620432C08B81882F90E0807C90707F
:10184000803C910551F58B81882F90E09C012F7190
:1018500030708FE190E0AC01249FC001259F900D76
:10186000349F900D11240E942B068B81882F90E0CD
:101870008F719070009719F40E94F4050EC08B814F
:1018800080728A838A81882319F480E3898302C065
:1018900081E3898389810E9495050F900F900F90B5
:1018A000CF91DF910895AF92BF92CF92DF92EF92E6
:1018B000FF920F931F93DF93CF93CDB7DEB7809145
:1018C0005903813009F063C08091CC039091CD031E
:1018D000A091CE03B091CF03BC01CD010E94F214C0
:1018E0005B016C018091AC039091AD03A091AE03BC
:1018F000B091AF03BC01CD010E94F2147B018C01B9
:101900008091AC039091AD03A091AE03B091AF0371
:10191000BC01CD010E94F214DC01CB01BC01CD0160
:101920002DEC3CEC4CE45DE30E946813DC01CB0140
:10193000BC01CD0120E030E040E251E40E941518E6
:101940009B01AC01C801B7010E940A13DC01CB0165
:101950009C01AD01C601B5010E9492148823BCF020
:101960002091CC033091CD034091CE035091CF0311
:101970008091AC039091AD03A091AE03B091AF0301
:10198000281739074A075B0714F40E947F038091E8
:10199000C603813009F063C08091BE039091BF03FC
:1019A000A091C003B091C103BC01CD010E94F2140B
:1019B0005B016C0180910E0390910F03A0911003C5
:1019C000B0911103BC01CD010E94F2147B018C0186
:1019D00080910E0390910F03A0911003B091110319
:1019E000BC01CD010E94F214DC01CB01BC01CD0190
:1019F0002DEC3CEC4CE45DE30E946813DC01CB0170
:101A0000BC01CD0120E030E040E251E40E94151815
:101A10009B01AC01C801B7010E940A13DC01CB0194
:101A20009C01AD01C601B5010E9492148823BCF04F
:101A30002091BE033091BF034091C0035091C10378
:101A400080910E0390910F03A0911003B0911103A8
:101A5000281739074A075B0714F40E942E04809167
:101A6000BD03813009F063C08091290390912A035E
:101A7000A0912B03B0912C03BC01CD010E94F21464
:101A80005B016C018091860390918703A09188038C
:101A9000B0918903BC01CD010E94F2147B018C013D
:101AA0008091860390918703A0918803B091890368
:101AB000BC01CD010E94F214DC01CB01BC01CD01BF
:101AC0002DEC3CEC4CE45DE30E946813DC01CB019F
:101AD000BC01CD0120E030E040E251E40E94151845
:101AE0009B01AC01C801B7010E940A13DC01CB01C4
:101AF0009C01AD01C601B5010E9492148823BCF07F
:101B00002091290330912A0340912B0350912C03FB
:101B10008091860390918703A0918803B0918903F7
:101B2000281739074A075B0714F40E946105809162
:101B30008D03813009F063C08091C2039091C3038B
:101B4000A091C403B091C503BC01CD010E94F21461
:101B50005B016C018091A8039091A903A091AA0355
:101B6000B091AB03BC01CD010E94F2147B018C014A
:101B70008091A8039091A903A091AA03B091AB030F
:101B8000BC01CD010E94F214DC01CB01BC01CD01EE
:101B90002DEC3CEC4CE45DE30E946813DC01CB01CE
:101BA000BC01CD0120E030E040E251E40E94151874
:101BB0009B01AC01C801B7010E940A13DC01CB01F3
:101BC0009C01AD01C601B5010E9492148823BCF0AE
:101BD0002091C2033091C3034091C4035091C503C7
:101BE0008091A8039091A903A091AA03B091AB039F
:101BF000281739074A075B0714F40E9410068091E2
:101C00003703813009F063C0809180039091810394
:101C1000A0918203B0918303BC01CD010E94F21414
:101C20005B016C018091250390912603A09127030D
:101C3000B0912803BC01CD010E94F2147B018C01FC
:101C40008091250390912603A0912703B09128034A
:101C5000BC01CD010E94F214DC01CB01BC01CD011D
:101C60002DEC3CEC4CE45DE30E946813DC01CB01FD
:101C7000BC01CD0120E030E040E251E40E941518A3
:101C80009B01AC01C801B7010E940A13DC01CB0122
:101C90009C01AD01C601B5010E9492148823BCF0DD
:101CA00020918003309181034091820350918303FE
:101CB0008091250390912603A0912703B0912803DA
:101CC000281739074A075B0714F40E94BE06809163
:101CD000C903813009F063C080914B0390914C039C
:101CE000A0914D03B0914E03BC01CD010E94F214AE
:101CF0005B016C018091960390919703A0919803EA
:101D0000B0919903BC01CD010E94F2147B018C01BA
:101D10008091960390919703A0919803B0919903B5
:101D2000BC01CD010E94F214DC01CB01BC01CD014C
:101D30002DEC3CEC4CE45DE30E946813DC01CB012C
:101D4000BC01CD0120E030E040E251E40E941518D2
:101D50009B01AC01C801B7010E940A13DC01CB0151
:101D60009C01AD01C601B5010E9492148823BCF00C
:101D700020914B0330914C0340914D0350914E0301
:101D80008091AC039091AD03A091AE03B091AF03ED
:101D9000281739074A075B0714F40E9466078091E9
:101DA0005903813009F52091AC033091AD03409186
:101DB000AE035091AF038091CC039091CD03A091DD
:101DC000CE03B091CF0382179307A407B50764F041
:101DD0000E946303109259031092CC031092CD031A
:101DE0001092CE031092CF038091C603813009F583
:101DF00020910E0330910F03409110035091110375
:101E00008091BE039091BF03A091C003B091C10324
:101E100082179307A407B50764F00E94120410927A
:101E2000C6031092BE031092BF031092C00310921B
:101E3000C1038091BD03813009F520918603309163
:101E400087034091880350918903809129039091E1
:101E50002A03A0912B03B0912C0382179307A407A8
:101E6000B50764F00E9445051092BD031092290346
:101E700010922A0310922B0310922C0380918D0351
:101E8000813009F52091A8033091A9034091AA035C
:101E90005091AB038091C2039091C303A091C403FE
:101EA000B091C50382179307A407B50764F00E9499
:101EB000F40510928D031092C2031092C303109286
:101EC000C4031092C50380913703813009F5209136
:101ED00025033091260340912703509128038091D8
:101EE000800390918103A0918203B09183038217B4
:101EF0009307A407B50764F00E94A2061092370367
:101F00001092800310928103109282031092830337
:101F10008091C903813009F5209196033091970390
:101F2000409198035091990380914B0390914C03F9
:101F3000A0914D03B0914E0382179307A407B507F4
:101F400064F00E944A071092C90310924B0310924A
:101F50004C0310924D0310924E03CF91DF911F91CD
:101F60000F91FF90EF90DF90CF90BF90AF900895CA
:101F7000DF93CF93CDB7DEB7E6E0F1E08081882F25
:101F800090E081709070009721F480919A038133E2
:101F900069F0E6E0F1E08081882F90E08270907037
:101FA000009781F480919A03803361F40E94630367
:101FB000109259031092CC031092CD031092CE03CD
:101FC0001092CF03E6E0F1E08081882F90E08470EA
:101FD0009070009721F480918C03813369F0E6E0E2
:101FE000F1E08081882F90E088709070009781F4F4
:101FF00080918C03803361F40E9412041092C60316
:102000001092BE031092BF031092C0031092C1033E
:10201000E6E0F1E08081882F90E080719070009779
:1020200021F480913D03813369F0E6E0F1E08081A5
:10203000882F90E080729070009781F480913D032A
:10204000803361F40E9445051092BD03109229036C
:1020500010922A0310922B0310922C03CF91DF9140
:102060000895DF93CF9300D0CDB7DEB79A838983ED
:102070000BC0E981FA81208189819A8101969A8336
:102080008983822F0E94B702E981FA8180818823A7
:1020900081F70F900F90CF91DF910895DF93CF9349
:1020A000CDB7DEB72A970FB6F894DEBF0FBECDBF0F
:1020B0000E9440080E946E090E944A0B0E94530C25
:1020C0000E94B80FF7CFDF93CF93CDB7DEB76C97F1
:1020D0000FB6F894DEBF0FBECDBF81E0809337030B
:1020E00081E30E94430681E380935C0380E49DE0EA
:1020F000A3E0B0E08093250390932603A0932703E9
:10210000B093280302C00E94530C809137038130A2
:10211000D1F380E090E0A8ECB2E4898F9A8FAB8F86
:10212000BC8F698D7A8D8B8D9C8D2DEC3CEC4CE2B7
:1021300055E40E946813DC01CB018D8B9E8BAF8B25
:10214000B88F6D897E898F89988D20E030E040E8D6
:102150005FE30E94C21488232CF481E090E09C8B02
:102160008B8B3FC06D897E898F89988D20E03FEFF2
:102170004FE757E40E94621418164CF5698D7A8D6A
:102180008B8D9C8D20E030E040E251E40E9468138A
:10219000DC01CB01BC01CD010E949211DC01CB011D
:1021A0009C8B8B8B0FC084E191E09A8B898B898902
:1021B0009A890197F1F79A8B898B8B899C89019772
:1021C0009C8B8B8B8B899C89009769F714C06D89D8
:1021D0007E898F89988D0E949211DC01CB019C8BA6
:1021E0008B8B8B899C89988B8F878F85988901979A
:1021F000F1F7988B8F8781E08093370380E30E940B
:10220000430681E380935C0380E49DE0A3E0B0E0BB
:102210008093250390932603A0932703B09328036C
:1022200002C00E94530C809137038130D1F380E0CB
:1022300090E0A8ECB2E48B879C87AD87BE876B8566
:102240007C858D859E852DEC3CEC4CE255E40E940E
:102250006813DC01CB018F839887A987BA876F81C8
:10226000788589859A8520E030E040E85FE30E9428
:10227000C21488232CF481E090E09E838D833FC0BC
:102280006F81788589859A8520E03FEF4FE757E495
:102290000E94621418164CF56B857C858D859E8591
:1022A00020E030E040E251E40E946813DC01CB0101
:1022B000BC01CD010E949211DC01CB019E838D8374
:1022C0000FC084E191E09C838B838B819C8101977B
:1022D000F1F79C838B838D819E8101979E838D83F3
:1022E0008D819E81009769F714C06F8178858985FB
:1022F0009A850E949211DC01CB019E838D838D8192
:102300009E819A83898389819A810197F1F79A83C3
:1023100089836C960FB6F894DEBF0FBECDBFCF9108
:10232000DF910895EF92FF920F931F937B018C0131
:1023300020E030E040E05FE40E94921488238CF0BB
:10234000C801B70120E030E040E05FE40E940A13DA
:102350000E9450159B01AC01205030404040504835
:1023600006C0C801B7010E9450159B01AC01B9011C
:10237000CA011F910F91FF90EF900895A0E0B0E087
:10238000E4ECF1E10C94DE17DC012B01FA019C91E5
:10239000923008F439C1EB018881823008F433C1EE
:1023A000943069F4843009F02FC111969C911197F3
:1023B0008981981709F428C1A4E0B2E025C18430CE
:1023C00009F421C18230A9F4923009F01DC19A01AB
:1023D000AD0188E0EA010990AE01E90109929E0190
:1023E0008150C1F7E201898111969C9189238183F3
:1023F00008C1923009F407C112962D903C901397B2
:10240000EB018A819B811496AD90BD90CD90DC90BC
:102410001797EC80FD800E811F819101281B390BDD
:10242000B90137FF04C066277727621B730B603240
:1024300071050CF061C0121613066CF537014801E6
:10244000062E04C096948794779467940A94D2F7E2
:1024500021E030E040E050E004C0220F331F441F71
:10246000551F6A95D2F721503040404050402E21F0
:102470003F2140235123211531054105510521F00C
:1024800021E030E040E050E079018A01E628F728B9
:10249000082919293CC0232BD1F1260E371E3501FE
:1024A0004601062E04C096948794779467940A9404
:1024B000D2F721E030E040E050E004C0220F331FAB
:1024C000441F551F6A95D2F721503040404050407C
:1024D0002A213B214C215D21211531054105510562
:1024E00021F021E030E040E050E059016A01A628E7
:1024F000B728C828D9280BC0821593052CF01C01D9
:10250000AA24BB24650103C0EE24FF248701119691
:102510009C91D20111968C91981709F445C099238A
:1025200039F0A80197012A193B094C095D0906C039
:10253000A60195012E193F09400B510B57FD08C00C
:1025400011823382228224833583468357831DC0C0
:1025500081E081833382228288279927DC01821BD4
:10256000930BA40BB50B84839583A683B7830DC00F
:10257000220F331F441F551F2483358346835783FF
:10258000828193810197938382832481358146815F
:102590005781DA01C9010197A109B1098F5F9F4FE6
:1025A000AF4FBF4328F30BC0918333822282EA0CE2
:1025B000FB1C0C1D1D1DE482F5820683178383E03E
:1025C0008083248135814681578157FF1AC0C90114
:1025D000AA2797FDA095BA2F81709070A070B07057
:1025E0005695479537952795822B932BA42BB52B82
:1025F00084839583A683B783828193810196938395
:102600008283DF0101C0D201CD01CDB7DEB7E2E1A7
:102610000C94FA17A0E2B0E0E0E1F3E10C94EA17C1
:1026200069837A838B839C832D833E834F83588772
:10263000E9E0EE2EF12CEC0EFD1ECE010196B70165
:102640000E94C8168E010F5E1F4FCE010596B8017D
:102650000E94C8168A8991E089278A8BC701B80130
:10266000AE01475E5F4F0E94BE110E94F315A09617
:10267000E6E00C940618A0E2B0E0E1E4F3E10C948B
:10268000EA1769837A838B839C832D833E834F83F0
:102690005887F9E0EF2EF12CEC0EFD1ECE010196CD
:1026A000B7010E94C8168E010F5E1F4FCE0105961E
:1026B000B8010E94C816C701B801AE01475E5F4F5E
:1026C0000E94BE110E94F315A096E6E00C94061835
:1026D000A0E2B0E0EEE6F3E10C94DE1769837A83C2
:1026E0008B839C832D833E834F835887CE01019635
:1026F000BE01675F7F4F0E94C816CE010596BE01DE
:102700006F5E7F4F0E94C8169985923088F0898944
:102710008230C8F0943019F4823051F404C084300F
:1027200029F4923081F484E092E0C6C0923049F4FA
:1027300020E09A858A89981321E02A87CE0109969C
:10274000BBC0823049F420E09A858A89981321E041
:102750002A8BCE014196B0C02D843E844F84588888
:102760006D887E888F88988CEE24FF248701AA24A8
:10277000BB24650140E050E060E070E0E0E0F0E0A4
:10278000C10181709070892BE9F0E60CF71C081DDF
:10279000191D9A01AB012A0D3B1D4C1D5D1D80E0EA
:1027A00090E0A0E0B0E0E614F7040805190520F475
:1027B00081E090E0A0E0B0E0BA01A901480F591F04
:1027C0006A1F7B1FAA0CBB1CCC1CDD1C97FE08C01B
:1027D00081E090E0A0E0B0E0A82AB92ACA2ADB2A6A
:1027E0003196E032F10549F0660C771C881C991C83
:1027F0005694479437942794C3CFFA85EA892B8956
:102800003C898B859C85280F391F2E5F3F4F17C051
:10281000CA0181709070892B61F016950795F79425
:10282000E79480E090E0A0E0B0E8E82AF92A0A2BDB
:102830001B2B76956795579547952F5F3F4F77FDF3
:10284000E7CF0CC0440F551F661F771F17FD41606F
:10285000EE0CFF1C001F111F21503040403090E053
:10286000590790E0690790E4790760F32B8F3C8F5C
:10287000DB01CA018F779070A070B0708034910531
:10288000A105B10561F447FD0AC0E114F104010599
:10289000110529F0405C5F4F6F4F7F4F40781A8ED3
:1028A000FE1711F081E08A8F4D8F5E8F6F8F78A3B6
:1028B00083E0898FCE0149960E94F315A096E2E14C
:1028C0000C94FA17A8E1B0E0E8E6F4E10C94EA17FA
:1028D00069837A838B839C832D833E834F835887C0
:1028E00089E0E82EF12CEC0EFD1ECE010196B70119
:1028F0000E94C8168E010F5E1F4FCE010596B801CB
:102900000E94C8168985823040F08989823028F07B
:10291000C701B8010E94401701C08FEF6896E6E03A
:102920000C940618A8E1B0E0E8E9F4E10C94EA1789
:1029300069837A838B839C832D833E834F8358875F
:1029400089E0E82EF12CEC0EFD1ECE010196B701B8
:102950000E94C8168E010F5E1F4FCE010596B8016A
:102960000E94C8168985823040F08989823028F01B
:10297000C701B8010E94401701C08FEF6896E6E0DA
:102980000C940618A8E1B0E0E8ECF4E10C94EA1726
:1029900069837A838B839C832D833E834F835887FF
:1029A00089E0E82EF12CEC0EFD1ECE010196B70158
:1029B0000E94C8168E010F5E1F4FCE010596B8010A
:1029C0000E94C8168985823040F08989823028F0BB
:1029D000C701B8010E94401701C081E06896E6E097
:1029E0000C940618A8E0B0E0E8EFF4E10C94E717C7
:1029F0009B01AC0183E08983DA01C9018827B7FD17
:102A000083959927AA27BB27B82E211531054105A3
:102A1000510519F482E089833AC08823A9F0203057
:102A200080E0380780E0480780E8580729F460E034
:102A300070E080E09FEC30C0EE24FF248701E21AB2
:102A4000F30A040B150B02C079018A018EE1C82E2E
:102A5000D12CDC82CB82ED82FE820F831887C801E5
:102A6000B7010E94A41501971816190684F4082EC0
:102A700004C0EE0CFF1C001F111F0A94D2F7ED8258
:102A8000FE820F831887C81AD90ADC82CB82BA82E9
:102A9000CE0101960E94F3152896E9E00C940318E4
:102AA000ACE0B0E0E6E5F5E10C94EE1769837A83DB
:102AB0008B839C83CE010196BE016B5F7F4F0E948A
:102AC000C8168D81823061F1823050F1843021F45A
:102AD0008E81882351F12EC02F81388537FD20C08B
:102AE0006E812F3131051CF06623F9F023C08EE191
:102AF00090E0821B930B29853A854B855C8504C049
:102B000056954795379527958A95D2F76623B1F064
:102B100050954095309521953F4F4F4F5F4F0EC0D8
:102B200020E030E040E050E009C02FEF3FEF4FEFF2
:102B30005FE704C020E030E040E050E8B901CA019E
:102B40002C96E2E00C940A18EF92FF920F931F93D9
:102B50007B018C0180E0E81680E0F80681E0080740
:102B600080E0180788F48FEFE816F10401051105DD
:102B700031F028F088E090E0A0E0B0E017C080E0FD
:102B800090E0A0E0B0E012C080E0E81680E0F80637
:102B900080E0080781E0180728F088E190E0A0E0D5
:102BA000B0E004C080E190E0A0E0B0E020E230E0DE
:102BB00040E050E0281B390B4A0B5B0B04C0169514
:102BC0000795F794E7948A95D2F7F701E45FFD4FF4
:102BD0008081281B310941095109C9011F910F91B9
:102BE000FF90EF900895DF92EF92FF920F931F9363
:102BF000FC01E480F58006811781D18080818230DC
:102C000048F480E090E0A0E1B0E0E82AF92A0A2B3D
:102C10001B2BA5C0843009F49FC0823021F4EE2420
:102C2000FF24870105C0E114F1040105110519F421
:102C3000E0E0F0E096C0628173819FEF623879072F
:102C40000CF05BC022E83FEF261B370B2A31310521
:102C50002CF020E030E040E050E02AC0B801A701AD
:102C6000022E04C076956795579547950A94D2F73A
:102C700081E090E0A0E0B0E004C0880F991FAA1F97
:102C8000BB1F2A95D2F70197A109B1098E219F2177
:102C9000A023B1230097A105B10521F081E090E0C8
:102CA000A0E0B0E09A01AB01282B392B4A2B5B2B1B
:102CB000DA01C9018F779070A070B07080349105EF
:102CC000A105B10539F427FF09C0205C3F4F4F4FE4
:102CD0005F4F04C0215C3F4F4F4F5F4FE0E0F0E09B
:102CE0002030A0E03A07A0E04A07A0E45A0710F01D
:102CF000E1E0F0E079018A0127C06038710564F5F0
:102D0000FB01E158FF4FD801C7018F779070A07089
:102D1000B07080349105A105B10539F4E7FE0DC00E
:102D200080E490E0A0E0B0E004C08FE390E0A0E099
:102D3000B0E0E80EF91E0A1F1B1F17FF05C016950D
:102D40000795F794E794319687E016950795F794E1
:102D5000E7948A95D1F705C0EE24FF248701EFEFB1
:102D6000F0E06E2F679566276795902F9F77D79431
:102D7000DD24D7948E2F8695492F462B582F5D2919
:102D8000B701CA011F910F91FF90EF90DF90089556
:102D9000FC01DB01408151812281622F6F7770E05D
:102DA000221F2227221F9381892F880F822B282FF1
:102DB00030E0991F9927991F11969C93119721151F
:102DC0003105A9F5411551056105710511F482E040
:102DD00037C082E89FEF13969C938E9312979A01C7
:102DE000AB0167E0220F331F441F551F6A95D1F7CF
:102DF00083E08C930DC0220F331F441F551F129682
:102E00008D919C911397019713969C938E93129793
:102E1000203080E0380780E0480780E4580758F306
:102E200014962D933D934D935C93179708952F3FE0
:102E3000310579F4411551056105710519F484E0F6
:102E40008C93089564FF03C081E08C9312C01C92A0
:102E500010C02F57304013963C932E93129783E067
:102E60008C9387E0440F551F661F771F8A95D1F713
:102E7000706414964D935D936D937C9317970895AA
:102E80001F93DC01FB019C91923008F447C08081C4
:102E9000823008F443C0943051F411961C91843070
:102EA00099F58181682F70E0611B71093FC0843002
:102EB00021F0923031F48230B9F18181882389F197
:102EC0002DC011961C9111978230F1F08181181755
:102ED000D9F412962D913C91139782819381821798
:102EE000930794F028173907BCF014968D919D91A3
:102EF0000D90BC91A02D24813581468157812817E2
:102F000039074A075B0718F4112341F00AC08217FA
:102F10009307A407B50740F4112319F061E070E0AE
:102F200005C06FEF7FEF02C060E070E0CB011F9142
:102F300008951F93FC0199278827BC01E8941191FB
:102F40001032E9F3193010F01E30C8F31B3251F083
:102F50001D3249F4689406C00E94C917610F711DA3
:102F6000811D911D119110531A30B0F33EF49095CC
:102F70008095709561957F4F8F4F9F4F1F9108955A
:102F8000FB01DC0102C001900D9241505040D8F786
:102F90000895592F482F372F262F660F771F881F28
:102FA000991F660F771F881F991F620F731F841F59
:102FB000951F660F771F881F991F08952F923F92C4
:102FC0004F925F926F927F928F929F92AF92BF9239
:102FD000CF92DF92EF92FF920F931F93CF93DF93E5
:102FE000CDB7DEB7CA1BDB0B0FB6F894DEBF0FBE42
:102FF000CDBF09942A88398848885F846E847D848F
:103000008C849B84AA84B984C884DF80EE80FD8090
:103010000C811B81AA81B981CE0FD11D0FB6F89406
:10302000DEBF0FBECDBFED010895990FBB0B550F4D
:10303000AA0BE0E8FEEF16161706E807F90770F08E
:1030400012161306E407F50760F0BA1754F031F4CE
:103050002617370748075907A7951BF4B901CA0176
:0C306000BA2FB69597950895F894FFCF0D
:10306C00FF00000000000000000000000001020250
:10307C000303030304040404040404040505050504
:10308C0005050505050505050505050506060606E0
:10309C0006060606060606060606060606060606C4
:1030AC0006060606060606060606060607070707B0
:1030BC000707070707070707070707070707070794
:1030CC000707070707070707070707070707070784
:1030DC000707070707070707070707070707070774
:1030EC000707070707070707070707070808080860
:1030FC000808080808080808080808080808080844
:10310C000808080808080808080808080808080833
:10311C000808080808080808080808080808080823
:10312C000808080808080808080808080808080813
:10313C000808080808080808080808080808080803
:10314C0008080808080808080808080808080808F3
:10315C0008080808080808080808080808080808E3
:0C316C00080808080808080808080808F7
:00000001FF
